:020000042000DA
:1000000060100020B1090020CD090020D109002096
:10001000D5090020D9090020DD09002000000000DA
:10002000000000000000000000000000E1090020C6
:10003000E509002000000000E9090020ED0900208A
:10004000F1090020F5090020F90900200000000056
:1000500000000000FD090020010A0020050A002020
:10006000090A0020000000000D0A0020110A0020EB
:10007000150A002000000000190A00201D0A0020B7
:10008000210A0020250A002000000000290A002083
:100090002D0A002000000000000000000000000009
:1000A000000000000000000000000000310A0020F5
:1000B000350A0020390A00203D0A0020410A0020AC
:0E01000042545F31372E30335F3230313900D8
:10011000BFF34F8F9448006810F4E06093490843A0
:1001200091490860BFF34F8F00BFFDE780B500F035
:1001300003F800F02FF801BD80B572B6002220212F
:100140008B4800F027F901BD8A48006830F4006050
:100150008849086088480068C006FBD48448006865
:10016000C0B27047844909688906FBD4814909688F
:1001700051F400617F4A1160C0B27D4908607E4839
:1001800000680007FBD47B48006830F400607949C0
:100190000860704738B500240025002008E00121E0
:1001A0005FF0006000F083FC4D20FFF7DBFF0025CF
:1001B000FFF7CAFF0500412D30D0452D1BD0492D3A
:1001C00008D04D2DEBD0502D1CD0522D36D0562DB1
:1001D0001ED0ECE7002000E0401C42F21071884283
:1001E000FADB002504E06548285CFFF7BBFF6D1CC7
:1001F0000E2DF8DBDBE7E4B2002C01D000F03BF879
:100200000024D4E7E4B2002C01D000F042F8CEE79D
:10021000E4B2002C01D000F064F8C8E7002058498F
:10022000087000F079F857490860002056490860C6
:1002300053480078FFF796FF0124B8E75220FFF7F4
:1002400091FF5248006830F4E04050F4805050F480
:1002500000604E490860FFF75BFFA8E738B504006F
:10026000002505E02000C0B2FFF77CFF240A6D1CCA
:10027000042DF7DB31BD80B5002000F05CFC45208B
:10028000FFF770FF4F20FFF76DFF4B20FFF76AFF6E
:1002900001BD10B500203A490870002405E000F0C7
:1002A0003BF83B4941F82400641C402CF7D3002460
:1002B0000AE0374850F8242000213248006810EB4B
:1002C000840000F07AFC641C402CF2D32D480068B6
:1002D00010F580702B49086029480078FFF742FF2D
:1002E00010BD38B528480468E4B2002C01D100F0F4
:1002F00026F8002507E02648E4B250F82400FFF76E
:10030000ADFF641C6D1CEDB2402DF4DBE4B214F0C3
:100310003F001D49086031BD38B5002500240AE0C2
:10032000FFF712FF164909784118154A11702D0A76
:1003300000064519641C042CF2D3280032BD10B508
:1003400000240DE000210F48006800F088FB1049F0
:1003500041F824000B480068001D0A490860641C2D
:10036000402CEFDB10BD00000CED00E00400FA05AE
:100370000080034000800A401880034000010020F4
:1003800068110020601100206411002038800D40A9
:1003900060100020D2B2002A03D0826B1143816327
:1003A00003E0826B32EA01018163704700127A0038
:1003B00081B0009002E00098401E00900098002854
:1003C000F9D101B070477A4A7A4B1A607A4A1268BA
:1003D00012F0380252F00102012902D14FF40071EB
:1003E00000E000210A4374490A607449086052F42D
:1003F000E070714908607248006871480068704890
:1004000000686F48006812F038026B490A600021EA
:10041000684A1160704770B504006548654A10600D
:100420006548006810F0380050F00105012902D13C
:100430004FF4007000E0002005435F48056000268F
:1004400023E030195D49086000205E49086055F4DA
:100450008865594805600520FFF7AAFF55F4005547
:100460005548056049F64040FFF7A2FF35F4806526
:10047000514805600520FFF79BFF35F401554E48B4
:1004800005600120FFF794FF361D102ED9D315F01B
:1004900038054948056000204649086070BD38B5F8
:1004A0004349444A11604449096811F0380151F048
:1004B0000104022802D14FF4007000E00020044340
:1004C0003D480460002522E03C48056000203D498D
:1004D000086054F44464384804600520FFF768FF5E
:1004E00054F400543448046049F64040FFF760FF7C
:1004F00034F48064304804606420FFF759FF34F41A
:1005000021542D4804600120FFF752FF2D1D102DAE
:10051000DAD314F038042848046000202549086024
:1005200031BD10B5224B234C2360012902D14FF479
:10053000007100E00021204B1B6813F0380451F0DB
:1005400001010C431C490C601C4908601D480260F5
:1005500054F48254184804600520FFF729FF54F42E
:100560000054154804600A20FFF722FF54F080046D
:10057000114804602820FFF71BFF34F080040E4868
:10058000046034F480540C4804600520FFF710FF29
:1005900034F40154084804600120FFF709FF14F007
:1005A00038000549086000200249086010BD0000BD
:1005B0005155AA8A1080014000800140048001400A
:1005C0000C800140088001402DE9F34FD0F804C0B1
:1005D000D0F808E0D0F80C80D0F81090D0F814A033
:1005E0008169C2690023012403255FF00116019F80
:1005F0003F8875E05FEAC77B6DD53CEA040CDDF807
:1006000004B09BF802B01BFA03FB5BEA0C0C3EEA59
:10061000050ECDF800E0DDF804E09EF808B09E4637
:100620005FFA8EFE5FEA4E0E1BFA0EFEDDF800B09A
:100630005EEA0B0E38EA0408DDF804B09BF80AB055
:100640001BFA03FB5BEA080839EA0609CDF80090BB
:10065000DDF8049099F803B013F110091BFA09F9B9
:10066000DDF800B059EA0B09DDF804B09BF804B0DE
:100670001BFA03FB5BEA09093AEA060ACDF800A077
:10068000DDF804A09AF805B013F1100A1BFA0AFA73
:10069000DDF800B05AEA0B0ADDF804B09BF806B0AA
:1006A0001BFA03FB5BEA0A0AA9430091019991F83E
:1006B00009B01900C9B249001BFA01F1DDF800B018
:1006C00051EA0B01A243DDF804B09BF807B01BFA16
:1006D00003FB5BEA02026400AD0076005B1C7F084E
:1006E000002F87D11F4B984201D11F2300E0002328
:1006F0003CEA030343601B4B984201D11F2300E0F7
:1007000000233EEA03038360164B984201D11F2366
:1007100000E0002338EA0303C360124B984201D182
:100720001F2300E0002339EA030303610D4B9842C5
:1007300001D11F2300E000233AEA03034361094B80
:10074000984201D11F2300E00023994381610549AC
:10075000884201D11F2100E0002132EA0101C1617C
:10076000BDE8F38F00000C402C480068800701D5DD
:100770002B4800E02A4829490968C90700D54008E4
:1007800026490968490705D526490968C1F30321A7
:10079000491C484321490968090A11F0030100294D
:1007A00003D002290FD004D312E01D481E4908606F
:1007B00012E01A490968C1F30311491CB0FBF1F0BA
:1007C0001949086008E04FF400401749086003E049
:1007D00049F6404014490860704780B513481449F1
:1007E00008600E48006800200C4908600D48006849
:1007F00000200C4908600F48006800200D4908607F
:100800000D48006800200C4908600C480068002072
:100810000A490860FFF7A8FF01BD00000C00024074
:1008200000127A0004000240440A00201000000870
:100830001C00024008000240100002401400024068
:10084000E0B501215FF4001000F022F84FF40060E1
:10085000ADF8000001208DF8020000208DF808009E
:1008600001208DF80A0001208DF80900694607482B
:10087000FFF7AAFE0121082000F00AF801218020DC
:1008800000F006F8FFF752FC07BD00BF00800A40E9
:10089000C9B2002905D0064909680843044908601F
:1008A00005E00349096831EA000001490860704722
:1008B0001C00024019E050F8041BCB0744BFA9F10B
:1008C00001035918121F0023042A41F8043BF9D2EE
:1008D0005FEA827C0B4604D54FF0000CA1F800C003
:1008E0009B1CD10744BF0021197050F8042B002A2B
:1008F000E1D1704710B450F8041B79B10268436825
:1009000012180830DC0744BFA9F10104E31852F8BB
:10091000044B43F8044B091FF9D1ECE710BC7047B6
:1009200010B5074979441831064C7C44163404E06C
:100930000A68081D511888470146A142F8D110BD28
:1009400008000000280000006DFFFFFF0C01000000
:1009500060100020000000009DFFFFFF1C0200004F
:100960004CFAFFFF440A00200000000000F00BF8E2
:10097000002801D0FFF7D4FF0020C046C046FFF793
:100980005FFF00F002F80120704700F001B800009E
:100990000746384600F002F8FBE7000080B5C04685
:1009A000C046024A11001820ABBEFBE72600020039
:1009B0000148804701480047DB070020C1090020AB
:1009C000C046C046C046C046FFF7D0FFFFF7FEBF97
:1009D000FFF7FEBFFFF7FEBFFFF7FEBFFFF7FEBF4B
:1009E000FFF7FEBFFFF7FEBFFFF7FEBFFFF7FEBF3B
:1009F000FFF7FEBFFFF7FEBFFFF7FEBFFFF7FEBF2B
:100A0000FFF7FEBFFFF7FEBFFFF7FEBFFFF7FEBF1A
:100A1000FFF7FEBFFFF7FEBFFFF7FEBFFFF7FEBF0A
:100A2000FFF7FEBFFFF7FEBFFFF7FEBFFFF7FEBFFA
:100A3000FFF7FEBFFFF7FEBFFFF7FEBFFFF7FEBFEA
:100A4000FFF7FEBF000000000000000000000000F3
:100A50000000000000000000000000000000000096
:100A60000000000000000000000000000000000086
:100A70000000000000000000000000000000000076
:100A80000000000000000000000000000000000066
:04000005200009C10D
:00000001FF
