:020000040800F2
:10000000203B002049AF0008DDAF0008DDAF00084D
:10001000DDAF0008DDAF0008DDAF00080000000024
:10002000000000000000000000000000DDAF00083C
:10003000DDAF000800000000DDAF0008DDAF000804
:10004000DDAF0008DDAF0008DDAF000800000000F4
:1000500000000000DDAF0008DDAF0008DDAF0008E4
:10006000DDAF000800000000DDAF0008DDAF0008D4
:10007000DDAF000800000000DDAF0008DDAF0008C4
:10008000DDAF0008DDAF000800000000DDAF0008B4
:10009000DDAF0008000000000000000000000000CC
:1000A000000000000000000000000000DDAF0008BC
:1000B000DDAF0008DDAF0008DDAF0008DDAF0008F0
:1000C000AB00AE0A85EB0920F0D4096016EAAD4A10
:1000D0004322C60A7CDE4F20216C4D60A5AFC34A87
:1000E000A5FDF60A2817D920CDE5CD60ABC8EB4AAF
:1000F00024CA410B7740A421F3D78561894D234B56
:10010000226FA80B8C7AB122203E716201EA674B04
:10011000649B2D0CF254022434478D63A4C0B74B6A
:10012000B1E8D40C54DC99251F33D8649A54114C8F
:100130004210A30DC4B97C27923951665777734C8E
:100140003E2F9E0EDA62B129EA7BF8670F3BDD4C49
:100150000128CE0FF565402C7F02CF695FE84D4D39
:10016000C5263D11CED0342FFBBED66BDEF4C44D78
:10017000FB5BF812E7C19C32729C126E68FD414E27
:10018000CDFF10157F2F8A36A198867035C0C44EDA
:1001900004C79D179BFB133B45EE3773951A4D4FD4
:1001A0007AFEBC1AC46E57400F4B2D76A605DB4F66
:1001B000C3A7971EEA577A4631236F7900956E5090
:1001C00080974204FE85EF1299950A3E8A4BE050D3
:1001D0008D9E9804DE77E9139DA8FC3EF4722E51A3
:1001E000176CF904D4A3F914A4C0FB3F34267E5144
:1001F000CDBD6605CBBF221652EE0841F671CF5138
:1002000094ACE20554F467172B6625421065225220
:1002100078C56F0615F8CC18A68852433D11775261
:100220000C261107C929561AE2E491447C89CD5263
:100230006EA6CA07CEBB081CD645E545D5E32553B7
:10024000390AA10862E0EA1D03BC4E47FD3980531C
:100250007C4D9A09741004200DABD0484EA8DC5395
:100260005FFFBD0A74565D2276D86D4ACE4E3B5470
:100270009ECC150C67C40125AC84294C0F529C54AC
:100280007B37AE0DA404FF27D685074ECADBFF548B
:1002900094A3970FAD1F662BBB680C50621B66556D
:1002A0008ED4E7111F964C2F8FA43D524747CF5550
:1002B0006D28BC1409DECD33F5D4A1542D9E3B56D8
:1002C000B8F3E8024640E90D5638482BF2918E56B5
:1002D0004275270340DB9E0E9E1BF82B385BC756EA
:1002E000179A6D033513640FEBF3B02CCB1B01573A
:1002F000209FBC033ED73A103B88732D09E03B5743
:1003000039041604E16A2511B4B9402E85B5775732
:10031000ED987B04EA712612CB85192FE7AAB45712
:100320000495EF049D0A4113DC0DFF2FCED0F25748
:10033000F7B3740531E77814E39AF230B6383258DF
:100340005C590E06DC70D215B8A7F531ACF67258C0
:10035000A6C5C00680F65217EBE809337120B558E0
:100360004B58910795E500191859313436CEF85895
:10037000BBF08608281BE41AA4496E35761B3E594B
:10038000A370AA09D549061D7174C336B4268559D0
:10039000797B070B4E8A731F3C1634388D12CE5969
:1003A000C484AD0CDE1D3B22A010C439BB06195A13
:1003B0008963B10EE47D70252212783BBA2F665A0C
:1003C0001C2410029E150B0A1F146C1E513CA15ACE
:1003D000B79E3C0250508C0A5E3DE91E11A5C95AD9
:1003E0004A856E02A29D180B3DBD6C1FEABAF25AF7
:1003F000D8B8A602EC5CB10BE020F71FAA861C5B04
:10040000FF48E6020F28580C8E0789200E12475B22
:10041000E87E2E03C4DE0E0D58252321B067725BE3
:1004200039ED8003EEB6D70DFD46C6211E939E5BC7
:10043000B883DF03284EB50E8154732280A0CB5BB6
:10044000DCA94C0489C5AA0F345B2B23779EF95B8A
:100450009E62CB0471DFBB10E78FEF23359C285CD5
:10046000AC7D5F05FB29ED119059C12429AB585C87
:10047000E3D80D062D364413695BA22553DE895C53
:10048000F3C0DC0633E4C714648494269D4BBC5C43
:10049000E573D4070CC480168A1E9A27680BF05C9B
:1004A000EBE4FF0878A3791848E8B5287F39255D83
:1004B00085D76D0A624EC01AE933EB290AF65B5DF7
:1004C00017D87601602B2C0754767215C9D7855D35
:1004D00026639601DCD087073939CB15F87FA25DFA
:1004E000B0C5B901234EEB07A478281652A2BF5D10
:1004F0001D9FE1011C9C570849988A16D044DD5D78
:10050000B1AF0E02C2DCCD081109F2169B6EFB5D85
:100510009CE04102C3634F09004A5F17DC261A5E64
:10052000CE4E7C0287C1DD091FECD217EA75395E19
:100530006E59BF0286D07A0A55944D18B464595E3C
:100540005DB40C0399C7280B3C00D01803FD795EFD
:100550006C816603A14FEA0B720A5B19D5499B5E59
:100560008E72CF03CBA1C20C27B1EF197757BD5EB6
:10057000A6FB4A0401B0B50DED1C8F1A4F33E05EA7
:100580003890DD044156C80EB3AB3A1BE0EC035F74
:10059000A1078D05F8A40010FDFBF31B5595285FFE
:1005A000BE20610693406611C8FEBC1C63404E5FCE
:1005B0004B4F6407F9EC0213920D981DB704755F59
:1005C000C2A70901FE9C1805AD73240FB5AD925F5B
:1005D00003FE1F01E6825905A84E630FD4F8A65FFB
:1005E000A40C390160F69F057F56A50F2D9ABB5FBD
:1005F00022445501B8A6EC055CD1EA0F1696D05FEF
:10060000232C7501EC604006600F3410B7F1E55FF4
:10061000066B990186169C06DF698110A8B1FB5F05
:1006200040C9C2017DE100078747D3101EDC11607D
:100630006B3FF201FC117007791D2A119077286039
:10064000240229020939EB074F7186119F8A3F6006
:10065000F3936802B6387408DEDDE811271D576091
:10066000B1DCB20232580D09B0165212D9376F60A0
:10067000434D0A036462B90975EEC21275E48760DE
:10068000D00C7203BAC67B0A265B3C13762DA160A0
:100690008A3CEE03E1CF580BFB82BF13481FBB60BF
:1006A0005E578404C4E5550C81C54D14EDC7D56073
:1006B00075C23B0580F0790D91CBE8143B37F160B2
:1006C0001813BC00CFAC9C03EEF8B20A7B34066171
:1006D00082E1CB007699CA039773DF0AC290146156
:1006E000B99CDD00B673FC03BF2C0E0BB829236147
:1006F000F693F100A8B7320454573F0B440332611C
:10070000B327080108F66D04F429730BC71F416174
:1007100035CD2101E9D9AE041DE5A90B3783506120
:1007200003123F01C42AF60451D2E30B89326061FF
:10073000AEA660014FD644059B42210C4531706145
:100740005A6587017FF89B057095620C9A848061D9
:10075000A75EB40154E5FC051A38A80C2532916156
:10076000F7ECE8019F3A69066FA9F20CBE3FA2615F
:100770006BC92602B4F0E2061B7E420D65B4B3617C
:10078000BB2E70025E766C072565980DD197C5610A
:100790000A09C80285D40808EE2DF50D83F2D76149
:1007A000DC383203F0DDBB08F0D0590E5CCEEA61D4
:1007B000AFF8B303E2748A09C77AC70EA136FE61A7
:1007C0005E128500269B8E02D9009007720F0D6283
:1007D000BE409000A317AF02A477AF070638176298
:1007E00073CB9C00085BD202BE84D0079D8B216234
:1007F0001CEBAA0085BDF8024C4BF307470C2C629A
:100800005EE3BA00C0A52203F4F31708DDBC36622C
:100810004B07CD00CC8B5003A7AA3E087F9F4162B7
:100820002FBBE10055FD820382A367087BB74C62B2
:10083000E37BF900BBA2BA03B9189308DC0758623E
:100840006CE31401E443F803C74CC108EE93636200
:10085000FFB234013FD23C049B8DF208C05F6F624F
:1008600022DF59011572890406352709966F7B62CC
:10087000DA9F85018B87DF04A4AB5F0945C88762D7
:100880009589B9011ACC4005456D9C09126F946297
:100890006CACF701CC63AF05590CDE092A6AA16282
:1008A000FBC54202C6032E06C539250AD5C0AE6275
:1008B0001E8A9E024F20C00614C9720AA77ABC6223
:1008C00013205E000725CF0115B358050EFBC66245
:1008D00096086600D51EE60171F36E050D2ACE62FC
:1008E0005FE76E00340FFF012B5386059977D562C1
:1008F0007BE47800FA341A027EEB9E051BE5DC628D
:10090000C32F840047D83702D1D8B805AB74E4624E
:10091000150491008B4E5802673AD405A127EC626A
:1009200026A89F00BEFA7B02D033F105F8FFF362E0
:10093000EA74B000CC55A302AFEF0F062F00FC62A3
:1009400004D6C3001EEBCE02839C3006C72A046384
:100950006055DA003967FF02CA71530673820C636F
:10096000F09EF400E1963503FFAD7806190A156391
:1009700014901301E3777203559CA0064DC51D63C7
:10098000474638014541B703E493CB06D8B7266301
:100990004A3764016477050484FCF90607E62F638F
:1009A000C453990180035F0405522C07AD54396389
:1009B000D038DA011E57C6044C2B630799094363EC
:1009C0007A914200AC96470126B9C70395764A63EF
:1009D000F4284800E0D557018C75D703338B4F635B
:1009E000AB6E4E00C47869014DFDE7035FB55463FB
:1009F000EB7E550049AB7C01E861F9032CF65963A5
:100A0000B07B5D00D7A091013CB70B04AB4E5F6398
:100A10002D8E66002895A801E3131F047AC0646335
:100A2000B1E8700061CFC1015E913304AA4C6A63E2
:100A3000D5C97C00F4A3DD01694D490435F56F6328
:100A4000477E8A003D76FC01E1686004A7BB7563C0
:100A5000E6669A0030BF1E028D0A7904DCA17B6332
:100A6000EBFDAC00E41045027A5F930414AA8163A5
:100A700066DFC200E61D7002309CAF04ADD687630E
:100A800050D5DC0054C2A0027AFECD046A2A8E63DF
:100A900012E8FB00D310D802B1CFEE044DA8946346
:100AA000AC76210191631703C7671205DD539B6381
:100AB000845A4F01B2746003F43039050B31A263DC
:100AC00004132F007DACE7007540AC026971A76389
:100AD000510733008829F300EA60B7021609AB63B7
:100AE000E776370062A2FF008211C3021EB0AE6338
:100AF00085753C0080350D01D65DCF02E166B2639D
:100B0000611B42007B071C01AC54DC02B52EB663AE
:100B1000BC85480011432C01C505EA023D08BA63B3
:100B200027D84F00F7193E01F682F8027CF4BD6326
:100B3000703E5800B1C7510194E10703F4F4C1635A
:100B40004CEF6100209367018C3818035C0AC66380
:100B5000B02F6D002BD27F0181A329032D36CA63EC
:100B600093547A00ABEA9A014E423C03327ACE6348
:100B70008ECD8900D15BB901D6395003E0D7D2635D
:100B800011299C0049C1DB0115B665033C51D763AF
:100B90001C22B20011DD0202CAEA7C036BE8DB63AF
:100BA000D5B0CC0049A42F0247169603DF9FE0631F
:100BB000E623ED00E24E63024583B103617AE5630B
:100BC000AA4921004BD4A300A5D3E301FF30E96378
:100BD00008152400A3F3AB0057B2EB01B1BBEB63E4
:100BE0007D382700C5C5B400FAF5F3017150EE63F6
:100BF000A0C02A00215FBE006DA8FC01E7F0F063F1
:100C000024BF2E0026DAC80032D30502259DF363E7
:100C1000534833007554D400AB810F020856F66375
:100C2000E0753800F8F1E000C9C01902541CF963FE
:100C300095663E0068DCEE00C49E24028AF0FB63E9
:100C4000DA404500C545FE009D2C3002BED3FE6350
:100C500016354D00536A0F01CC7D3C0208C7016474
:100C6000D38056007393220159A8490225CB04640E
:100C700083716100111A3801F4C657028AE10764D2
:100C8000F06C6E00E36C500120F866024E0B0B64B2
:100C900044F67D0033146C01F56077025A4A0E6405
:100CA000CCBD9000F3BD8B01502D89023BA0116497
:100CB000F4AFA700E346B00104929C02CF0E156486
:100CC000D98917006DD97300111D560104AF17643F
:100CD000FA831900F197790062AD5B01ED7A19642E
:100CE000E0BB1B006AD47F00698561013C4E1B6438
:100CF0002E3B1E001C9E8600ECAB6701D1291D64B3
:100D00003D0E21004C078E0066276E01B70D1F6453
:100D100010432400B9249600F9FF74018DFA206471
:100D20009BEC270087109F00A13E7C01ABF0226462
:100D3000CA1F2C0097E7A8001CEE8301EFF0246483
:100D400035F8300059CDB300AA198C01A9FB2664EF
:100D500062983600CAECBF000BCF94018811296459
:100D6000EF2A3D002B79CD007D1E9E018C332B6434
:100D700084E74400FAB1DC005C1AA80161622D64CA
:100D800081154E0083E4ED0021D8B201F99E2F6455
:100D9000E3115900C37201011373BE01C2EA316449
:100DA0004A59660065D61701C008CB017246346403
:100DB000F7927600F4AB310167BFD801BBB336645C
:100DC000EBA410003CEB5100A9E8F100FE8E386462
:100DD000350B12009CFB5500DDD7F50017D43964A4
:100DE0005A9C1300EF635A00C3F9F900B61E3B6426
:100DF0007E601500F8305F005853FE00076F3C64BA
:100E0000CC5F1700786E6400B1E8020128C53D642C
:100E100062A419007B2B6A00E6BF0701AC213F6486
:100E2000293B1C002C7A700036DF0C01A984406439
:100E30006C331F006C6F77005C4E1201D4EE41647E
:100E400089A0220007247F004F1518017B604364AE
:100E5000C69A260081B68700E43D1E010FDA44647D
:100E6000F5402B00224B9100AED22401DB5B46649F
:100E70000DB930006B0E9C004EE22B0136E7476443
:100E8000B5363700F337A800657B3301597C4964D8
:100E90006FFB3E009B0BB600A7AF3B01CA1B4B6428
:100EA000365F480080E0C500C9954401B3C64C6474
:100EB00050D853000225D80033484E01047E4E64BA
:100EC000F8C40B0012ED3900140EAB001BCE4F64BA
:100ED000E3C10C0041CC3C0067D6AD0028B450649F
:100EE000F1DD0D0095EA3F0068C2B000CF9D51646E
:100EF000AC1D0F004F4F430046D5B300678B5264C3
:100F00001A8710000F0447005A13B700777D536407
:100F1000B4211200E3124B009B7FBA00E3735464C8
:100F200039F61300AC884F00421FBE00266F55648F
:100F3000E20F16001A74540086F6C100016F566461
:100F4000397C180026E75900690CC6006A7457649A
:100F5000394C1B00A4F65F001667CA006C7F58640A
:100F600093951E0008BD6600D30ECF005E905964B5
:100F7000A2732200A9596E003B0DD400EFA75A645A
:100F8000CA0A2700E5F27600ED6BD9002BC65B6438
:100F9000F6882C00C3B980002339DF00FEEB5C64C7
:100FA000C12C3300BCEB8B001584E500DD195E64B9
:100FB000B3493B0082D698004D5FEC0077505F64E8
:100FC00078520800AFF528000EF47800123E6064F5
:100FD00082050900CCFD2A00C6EB7A00B5E060640A
:100FE00019CE0900E5312D00D5FC7C003086616406
:100FF00070B00A00CA982F0081297F00202E6264F9
:10100000D1AF0B002E3732001B74810037D96264D8
:101010001CD20C00AF15350086DF83005287636455
:10102000811D0E00643D3800D36F86001B39646457
:10103000B7990F00DCB73B001627890015EE6464F2
:101040003E5011002F923F007F0A8C00D6A66564A7
:101050006B4D130061DB4300CC1E8F00AD636664F3
:101060005BA01500AEA5480073699200B5246764C3
:10107000915C18006F074E002AF1950051EA6764F1
:10108000659B1B00141C54007EBD9900CCB46864A1
:10109000C17D1F00FE055B00B9D79D008C8469648B
:1010A000A62F240072F06200CA4AA200005A6A64A5
:1010B000F8EB2900B3126C003224A700BA356B6438
:1010C0007FE205009AF61C0002875500B6DD6B64CE
:1010D0001B6106007F661E0057EB5600C1506C6412
:1010E00003EF06006CF51F00436158009DC56C645A
:1010F000CD8E0700DBA7210001EB5900933C6D6406
:101100009443080017822300A3895B0066B56D64D1
:10111000D0100900638925009C3F5D0086306E6415
:1011200032FB090072C42700780F5F0024AE6E64A2
:10113000B0070B00103A2A008BFB6000502E6F6442
:10114000203E0C00A6F32C002D066300DDB06F647A
:1011500020A60D007DFB2F00913365005C36706486
:10116000CA4A0F009C5E33006E876700DCBE706465
:10117000D0391100A92C370056066A008F4A7164D5
:101180007C851300A7793B00FBB56C00BCD971646A
:1011900068441600045D4000AE9C6F00B26C72643F
:1011A0002E961900DFF5450025C27200A503736471
:1011B000D3A41D00596B4C00AE2F7600E99E7364DA
:1011C00043290400F27A1400207A3C00BF157464AD
:1011D000D4820400077F1500F2753D000B6774642C
:1011E0001FE7040037991600827E3E00B1B974648F
:1011F0002458050053CC1700BD943F00BC0D756406
:1012000003D80500A21B1900ECB9400036637564D1
:101210001D690600008B1A00EAEF410064BA75648C
:10122000D40E0700A81E1C00BF3743002A137664A3
:1012300012CD07003FDC1D008D934400A26D766443
:10124000D2A70800F0C81F009C05460053CA766468
:10125000BBA60900C3ED21006C8F4700812877648D
:101260002FD00A00E9522400C3344900068977646C
:10127000102E0C00AE032700AAF84A00D7EB7764C3
:1012800083CD0D00200E2A00E2DE4C00145178645C
:10129000C2BE0F001F832D00F2EB4E00EDB8786444
:1012A000F01712006878310075255100AA2379647F
:1012B0003FF6140079093600199253008991796438
:1012C0003CF10200307B0E005CC32A007AE57964B1
:1012D000843003000C330F0059752B00E31E7A6431
:1012E000437703003FFA0F0055302C0067597A64AA
:1012F0005DC70300C3D310003EF52C00D4947A647C
:10130000C92104000AC11100D2C42D005ED17A6443
:101310006C880400B8C41200C79F2E00E50E7B64E1
:1013200096FD040029E21300C4872F00CB4D7B6497
:10133000FC830500271D1500B97D3000C68D7B6438
:10134000FA1E0600C67916001683310016CF7B649C
:10135000EBD2060001FE1700799A320026127C6457
:101360002BA5070011AF1900B5C3330020567C64CC
:10137000EA9C080055961B000D033500DE9B7C643B
:10138000B2C20900BCBC1D00F25A360087E37C647F
:101390001F220B00742E20004ECE3700FE2C7D64E1
:1013A00006CB0C009EFA2200D16039006E787D6475
:1013B00048D20E008F352600D5173B001FC67D642E
:1013C00096140200753D0A001F3D1E0090017E64C8
:1013D0004C4102006ABF0A0006BB1E00382A7E6428
:1013E00083730200864C0B00353F1F007F537E64E1
:1013F000F8AB0200E6E50B003ECA1F008D7D7E645F
:1014000002EC0200ED8D0C001C5D200050A87E64F3
:101410007734030056450D00E5F72000DDD37E64E8
:101420004B8703003D0F0E00F89B210050007F64A6
:101430008BE603000AEE0E00A34922006C2D7F64A8
:101440001454040091E40F00A1022300B55B7F64F3
:101450006CD30400D7F610009AC72300DF8A7F649C
:10146000046805007F2912006E9A240029BB7F645E
:101470001F170600E7811300767C2500A9EC7F6426
:10148000D7E60600080715005E6F26002F1F806450
:101490008CDF07008EC11600057627002F5380646D
:1014A000F70B090017BC1800AA9228007D888064F9
:1014B000F97A0A0088041B00E6C8290062BF80642C
:1014C0009F780100A63D0700BE61150069E98064B0
:1014D0004C9801007499070079BA150002068164DE
:1014E000C4BB010050FD0700381816005A23816460
:1014F000BAE30100046A0800BA7A16001741816451
:10150000D81002009FE0080097E21600645F816433
:10151000324402004E620900DC4F17001C7E8164D9
:10152000CB7E02001BF10900DCC31700859D81649E
:10153000FBC10200638E0A00A23E18007ABD8164DE
:101540007F0F0300FB3C0B00A5C118003ADE81644D
:101550009A690300D0FE0B00C44C19008BFF816414
:10156000B2D20300A7D70C00DAE11900B3218264DC
:101570007B4E040033CB0D0098811A00A144826495
:1015800058E1040061DE0E007C2D1B006C68826453
:101590002B9105002A17100018E71B00298D826483
:1015A000996506007D7D11007FB01C00E2B2826467
:1015B00048690700F71A1300088C1D00C0D982641F
:1015C0004A0A0100AC1E0500791E0F0067F782640D
:1015D000CF200100E85F0500755D0F00AC0B836450
:1015E000D839010071A60500B29F0F0068208364FE
:1015F00066560100BAF305006DE50F00613583649E
:10160000EA75010089460600112E1000A74A83647E
:10161000479A0100BDA20600FF7B10009B60836417
:10162000B8C30100A7070700D4CD1000B4768364C7
:1016300037F30100FD760700E2241100698D836411
:10164000E12902003AF2070086811100A1A4836417
:10165000BA6902006F7B0800B6E3110007BC83641F
:1016600001B4020092140900104D120037D48364B3
:10167000A80B0300E8C00900F5BD1200DBEC836491
:10168000857303007D830A00933713003706846453
:10169000B3EF0300A1600B00CBBA130028208464D1
:1016A000F3850400465E0C008B491400F23A846412
:1016B000863D050052820D008AE41400635684645E
:1016C00043BC0000D19E0300F9B00A006C6B846437
:1016D00008CC0000B7CC030080DD0A00D279846416
:1016E000F2DD0000CBFE0300310C0B005788846450
:1016F000CEF1000011350400933D0B004D9784643A
:101700006F0801004F7004003C710B004FA6846409
:10171000FB2101000CB10400FBA70B00C2B58464DF
:10172000343F010050F80400E3E10B0070C584640D
:101730008F60010023470500FC1F0C00BFD58464A7
:10174000C5870100779E0500C6600C00C2E5846471
:10175000C5B4010072FF050073A60C0072F6846424
:1017600040E90100CD6B060012F10C00960785647C
:10177000432702008AE50600B3400D00F018856497
:1017800099700200486F0700C3960D00D42A856443
:101790009BC80200900B080074F30D00323D856475
:1017A000CE320300C1BE080041580E0019508564B6
:1017B00095B403004C8D0900C5C50E0072638564A5
:1017C000338500006C8F0200458F07005C728564D2
:1017D000829000003BB00200FAAE0700917C856465
:1017E000E69C00002BD30200D4CF0700DE86856480
:1017F00013AB0000A1F902009AF20700589185642A
:10180000EFBA00006423030041170800119C8564AF
:1018100024CD00005F510300123E080005A7856437
:10182000DCE10000DC830300FE6608000DB2856485
:10183000E0F9000092BB0300069208001EBD85641B
:101840002F15010034F9030081C00800D5C8856454
:10185000E8340100D73D040015F20800C9D48564BE
:10186000095A0100638A04009C260900C8E08564C7
:101870009B8501006CE00400395F090032ED85644E
:10188000B9B90100C8410500DB9B0900C9F98564AD
:1018900015F801007CB0050092DD0900D3068664CE
:1018A000FE4202000E2F0600AF240A001C148664BC
:1018B000019F02002FC106002D720A00D421866408
:1018C000B4BF2800FDD07C510000000033377A00FF
:1018D000ED737D51ACFFFFFFE9ACCB00C0B97E5189
:1018E00065FEFFFFF71A1D0152A2805186FBFFFF24
:1018F000C1766E01312D83516FF6FFFF7DC1BF01AF
:10190000185A86517DEEFFFF9F03110235298A5137
:101910000EE3FFFFCF1A62027D988E5187D3FFFF3F
:10192000901BB30283A8935145BFFFFF86FD0303BD
:101930005C589951ACA5FFFFC3BD540359A79F51F3
:101940002086FFFF6B54A5034694A6510760FFFF56
:10195000AFBEF503351EAE51CA32FFFFC0FA4504D3
:101960004644B651D1FDFEFF500296040F05BF510B
:101970008AC0FEFF97D4E504A65FC851627AFEFFD5
:10198000776F3505F752D251C62AFEFF1DC5840573
:1019900049DCDC5135D1FDFF28E2D30550FCE7518D
:1019A000146DFDFF72B72206F0AFF351E8FDFCFFA6
:1019B0008641710673F5FF513083FCFFC284BF0678
:1019C00070CC0C525EFCFBFFAC730D0775311A52E4
:1019D0000569FBFFA8115B07C7232852A2C8FAFFBD
:1019E000FC5AA80777A13652BD1AFAFF2C4CF5070E
:1019F00086A84552E35EF9FFE3DD410814365552EF
:101A0000B294F8FFD1108E08CA486552B4BBF7FFF4
:101A100067DCD90842DD755295D3F6FFD040250921
:101A2000F0F18652E9DBF5FF42447009A686985230
:101A300032D4F4FF31D8BA096996AA523DBCF3FFFB
:101A400046FB040A1D1FBD52B193F2FFCCAB4E0AF8
:101A50008E1ED0523A5AF1FFE8E6970A3092E352CE
:101A60008C0FF0FF44A8E00AFC76F75268B3EEFF53
:101A70000BF2280BA8CB0B537445EDFF67BB700B23
:101A8000CD8B205391C5EBFF4902B80BC6B435533B
:101A90008633EAFF3FC8FE0B02454B530A8FE8FF2F
:101AA0007D08450C03396153FAD7E6FFFEBD8A0C69
:101AB000148D77533E0EE5FFFCE8CF0C1A3F8E5392
:101AC000A431E3FF3A88140D834CA5530442E1FF8F
:101AD0009393580D55B0BC53703FDFFF43139C0DDB
:101AE000256BD4538529DDFF5BF6DE0DAE74EC5318
:101AF000AA00DBFF594D210E90D004543BC4D8FFFF
:101B000051FE620EDB721D540575D6FF151BA40E27
:101B1000C85F36545912D4FFC598E40EC9904F548B
:101B2000919CD1FF8477240F72036954A613CFFFD1
:101B30005FB8630FB2B582548C77CCFFEC54A20F20
:101B400070A29C548CC8C9FF874CE00FD1C6B65414
:101B5000B606C7FFAF9C1D102E1FD1543932C4FFEB
:101B60000A425A106FA7EB54534BC1FF9A4296108A
:101B7000975F0655D451BEFF8A95D1101341215568
:101B80004B46BBFFF43A0C1136493C55DD28B8FFF3
:101B9000CA354611B27657558AF9B4FF8F7D7F1149
:101BA000D1C27255F9B8B1FF8215B8114F2C8E55BC
:101BB0003567AEFF64F1EF1167AAA9553405ABFF95
:101BC000D02C2712F647C5558691A7FF98AB5D121A
:101BD00039F4E0552A0EA4FF71769312B6B0FC5585
:101BE000E17AA0FF798BC812A579185617D89CFF07
:101BF00060E3FC1240483456A82699FF72853013E2
:101C0000841D50566D6695FFBD6F63138AF56B5644
:101C1000E79791FF37A19513DFCC87568DBB8DFFDA
:101C2000DA16C713F59EA35604D289FF3ECFF713E9
:101C30000168BF56DDDB85FFCED02714CD28DB56EB
:101C400003D981FF67135714BAD9F6569BCA7DFF93
:101C5000DE988514DF781257FEB079FF8063B314E5
:101C6000A7042E577C8C75FF156BE0142D75495712
:101C70005A5E71FF57BC0C1534CF6457FA256DFFBF
:101C80000B4E38152B0A8057C7E468FF6522631591
:101C900079249B571F9B64FF27348D15C217B657B5
:101CA0002C4A60FFAE89B6151BE5D057E5F15BFF06
:101CB0004422DF152389EB57FF9257FF1BFD0616C1
:101CC0005F000658372E53FF15172E16BC452058B7
:101CD00093C44EFF14745416D5583A5859564AFFB7
:101CE00011147A16BA36545839E445FF04F59E1695
:101CF00005DB6D582E6F41FF651CC316994687584A
:101D00004AF73CFFCD83E6160272A058167E38FFD4
:101D10008C2F0917555DB958D20334FFFA202B17C1
:101D2000A506D25815892FFF2F544C172568EA585D
:101D3000330F2BFF24CF6C174A8302592E9626FFB0
:101D40009E8D8C170F521A596D1F22FF7492AB177C
:101D50009DD3315966AB1DFF66DEC917AB054959E6
:101D6000D53A19FF0571E717F7E45F59ADCE14FFB7
:101D70009E4C04186D707659746710FFF36F20182D
:101D800032A48C5942060CFF04E03B186681A2592C
:101D900036AB07FF0A9A5618FC02B859A95703FF39
:101DA000809D7018B425CD59A00CFFFE7EED8918DA
:101DB00038E9E1598CCAFAFE538CA218A84CF6599E
:101DC000FA91F6FE4279BA18A04C0A5A0164F2FE62
:101DD00060B5D11842E71D5A6741EEFECE42E818C1
:101DE000991B315AC72AEAFE771FFE1827E5435A86
:101DF0007D21E6FE9B4F1319CC44565AC625E2FEC0
:101E000068D42719E838685A6538DEFE8BAD3B196F
:101E100080BE795A6E5ADAFE52DC4E1915D48A5AAF
:101E2000A48CD6FEF6626119F2789B5AA2CFD2FE3C
:101E3000D3427319BEABAB5A2324CFFE637A841905
:101E40007168BB5A8A8BCBFE960E9519F8B0CA5AA8
:101E5000D805C8FE4BFFA419AA82D95A2094C4FE03
:101E6000364CB419ACDAE75A8537C1FEB6FAC21956
:101E70008FBBF55AE4EFBDFE2808D1194A20035B59
:101E8000E8BEBAFE5377DE190509105B04A5B7FE5C
:101E9000914AEB1996751C5BBEA2B4FEAA81F71994
:101EA0004263285B3FB9B1FE6D1F031A7AD2335BE0
:101EB000E5E8AEFE72240E1A68C13E5BA432ACFEA9
:101EC000BC92181A852F495B2897A9FEBB6B221A72
:101ED000371C535B0517A7FE0DB02B1A86855C5B7C
:101EE0004CB3A4FEE962341A9A6C655B2B6CA2FEBB
:101EF0006A843C1A11CF6D5BCE42A0FE8916441A4B
:101F0000D0AC755BB9379EFED11A4B1A36057D5B96
:101F10009C4B9CFECF92511AAFD7835B227F9AFED7
:101F20001480571AB3238A5BF7D298FE30E45C1A08
:101F3000C5E88F5BC14797FEB9C0611A7326955BF0
:101F400026DE95FE4117661A57DC995BCA9694FE09
:101F500062E9691A160A9E5B4D7293FEB1386D1ADA
:101F600060AFA15B4E7192FEC906701AEFCBA45B05
:101F7000679491FE4355721A885FA75B33DC90FE2D
:101F8000BA25741AFB69A95B484990FECA79751A8B
:101F900022EBAA5B3ADC8FFE0E53761AE2E2AB5BD1
:101FA0009A958FFE23B3761A2851AC5BF6758FFE97
:101FB000A69B761AEC35AC5BDA7D8FFE320E761A74
:101FC0003291AB5BD0AD8FFE640C751A0363AA5BD4
:101FD0005C0690FED997731A76ABA85B048890FED6
:101FE0002CB2711AA76AA65B463391FEF95C6F1A90
:101FF000BFA0A35BA10892FED9996C1AEC4DA05B1F
:10200000900893FE686A691A68729C5B893394FE33
:102010003DD0651A750E985B028A95FEF2CC611A66
:102020005B22935B6D0C97FE1E625D1A6DAE8D5B3D
:1020300039BB98FE5491581A03B3875BD1969AFE28
:102040002C5C531A8130815B9F9F9CFE36C44D1AD5
:1020500050277A5B08D69EFE06CB471AE097725B44
:102060006F3AA1FE2A72411AA9826A5B35CDA3FE9E
:1020700030BB3A1A2BE8615BB68EA6FEA6A7331AD0
:10208000ECC8585B4C7FA9FE14392C1A7B254F5B9A
:102090004F9FACFE0571241A69FE445B12EFAFFE40
:1020A000FE501C1A52543A5BE66EB3FEB3DA131AB2
:1020B0002D282F5BF51EB7FECC0E0B1A6579235B1E
:1020C000FBFFBAFE39F0011A694A175BB811BFFE6F
:1020D000427FF8199D9A0A5BC754C3FED1BDEE1921
:1020E000286BFD5A51C9C7FEA1ADE4191BBDEF5ABB
:1020F0007C6FCCFEDF4FDA19DD90E15AA147D1FEAB
:10210000DEA5CF1900E7D25A0E52D6FE17B1C41978
:1021100091C0C35AD38EDBFE7673B919C11EB45A6F
:102120001FFEE0FEF7EDAD190D02A45A29A0E6FE50
:102130009421A219976A935A6D75ECFEEF109619C7
:10214000035B825A737DF2FEBEBB8919DDD1705AE2
:1021500035B9F8FEE0247D191DD25E5A2328FFFE12
:10216000124D7019DC5B4C5AA7CA05FF3B35631949
:102170005E6F395A1DA10CFF6EE055191B10265ACF
:10218000BCAA13FF4C4D48191E3B125A0AE91AFF0C
:10219000807F3A19D4F4FD59DC5A22FF19772C19A3
:1021A0005F3CE959F8002AFFFE351E19B713D459D0
:1021B00010DB31FF6FBC0F194B7ABE59D0E939FFE4
:1021C0003D0D01197973A859622C42FF2D28F21890
:1021D00011FE9159A6A34AFF2310E318971D7B59BE
:1021E000B84E53FF1EC4D318C2CF6359DF2E5CFF15
:1021F000E046C418F5174C593F4365FFC499B4181D
:102200007CF73359C28B6EFF17BDA4181C6E1B5987
:10221000E40878FFA0B29418CF7D02594EBA81FF2E
:102220004C7B84185527E95818A08BFF5118741857
:10223000E26BCF5831BA95FFAE8A6318574CB55848
:10224000A608A0FF75D35218BCC99A58718BAAFF73
:1022500026F44118D0E57F584442B5FFB7ED301859
:102260007FA16458202DC0FF5FC01F187EFC485816
:10227000874CCBFF756E0E1800FA2C588B9FD6FF3B
:10228000CFF8FC17CB9A10583B26E2FF1560EB17EE
:102290006BDFF357B9E0EDFFA0A4D917D8C7D65725
:1022A00068CFF9FFB0C8C7174857B9574CF10500B8
:1022B00068CCB5176E8D9B57E146120058B1A31735
:1022C000606C7D57A4CF1E003A789117DBF45E57FF
:1022D0009C8B2B00FD217F17FC274057A67A3800E6
:1022E00095AF6C17EB0621579A9C4500E3215A17CE
:1022F000AC92015762F15200707A47177ACDE156DD
:102300005A7860000FB934179AB6C15625326E005C
:1023100014DF2117EE4FA156451E7C0019EE0E1753
:10232000DA9B8056013C8A003EE5FB167B985F569F
:102330007A8C9800E1C7E8164F4B3E56980DA700DF
:102340006A94D5163AB11C5604C1B500994DC2160F
:10235000BCCEFA550DA5C4009BF2AE1613A2D855FB
:10236000C5BAD300EA859B164F2FB655A900E300E6
:102370003D078816AA7593555477F20004767416B3
:10238000D6737055A81F02015DD56016272F4D55D5
:1023900084F71101A7254D160EA82955F8FE210135
:1023A000FA6639166EDE055558363201809A2516C2
:1023B00034D4E154019D4201A4C01116ED89BD54ED
:1023C000F5325301A3D9FD15CFFF98545AF8630194
:1023D000A6E7E915A2397454B5EB74010FEAD515D7
:1023E0001A364F54D70D860182E1C1152DF62954B6
:1023F000915E970104CFAD15A87B045442DDA8017E
:1024000024B499153FC9DE53E688BA01F58F8515C6
:102410001FDDB8538C62CC012C64711555BA9253F0
:10242000FE68DE01A9305D1589606C539D9CF0014A
:10243000E1F6481564D245535CFC0202C2B634157D
:10244000A70F1F538C881502F07020157419F852CD
:10245000D940280252260C1578F1D052A3243B0211
:1024600032D7F7142898A952E6334E02CB84E314EE
:10247000DC0F8252B06D6102D42DCF1404565A5233
:102480006ED3740262D5BA148D7032526F628802B4
:10249000F879A614985C0A52411C9C02091D9214FA
:1024A000E91CE251B9FFAF022EBF7D14ACB2B951A5
:1024B0006D0CC4029F5F6914491C91515643D802A8
:1024C0002DE9F04B8046164682B00C469946B00086
:1024D00000F054FD5FEA000B51D0502000F04EFD9B
:1024E000070049D0C7F830B0A5220A9DB100584670
:1024F00000F0F2FD386B00EB8600001FC608F60006
:1025000006F0070007F13401227801F8012B14F8D6
:10251000012B42B1227801F8012B14F8012B12B1E2
:10252000801C0A28F0D3002087F83D000F2D28BF1B
:102530000E25FD623D647864381D00F0F7FD07F15B
:10254000180000F0F3FDC5F10F00B8613F617F6234
:102550000020B86487F84C004A464146304600F0F7
:1025600033FE38600B9800B10760384600F00CF875
:10257000012002B0BDE8F08B584600F07FFD4FF01F
:10258000FF3002B0BDE8F08BF0B581B0044600F03A
:10259000A8FEDFF8A456D5F87801401CC5F87801EC
:1025A000A86A48BBAC62D5F8780101282DD105F1A5
:1025B0002C060F27304600F0ACFD14367F1EF9D1F3
:1025C00005F5D07000F0A5FD05F5DA7000F0A1FD6D
:1025D000284600F09EFD05F1140000F09AFD05F577
:1025E000B27000F096FD05F5D070C5F8580105F5FC
:1025F000DA70C5F85C0108E0D5F8840128B9E06A12
:10260000A96AC96A884228BFAC62D5F89401401C07
:10261000C5F894010121D5F88001E26A9140084390
:10262000C5F88001211DE06A00EB800205EB820005
:102630002C3000F07EFD00F06EFED5F8840168B10C
:10264000A86AE16AC06A884208D2DFF890164FF0A3
:1026500080500860BFF34F8FBFF36F8F01B0F0BDA4
:1026600070B505003ED0DFF8D045D4F89C0140B1EC
:102670004FF47A6080F31188BFF34F8FBFF36F8FF1
:10268000FEE7D4F89C01401CC4F89C01D4F87C619E
:10269000A06A001D00F085FD50B9A06AD4F8801131
:1026A000C06A012202FA00F021EA0000C4F88001A9
:1026B000AD19A06A4560B542A06A05D2011DD4F8E3
:1026C0005C0100F042FD0AE0011DD4F8580100F061
:1026D0003CFDD4F89801854238BFC4F8985100F009
:1026E00097F840B9DFF8F4154FF080500860BFF359
:1026F0004F8FBFF36F8F70BD30B581B04FF4007056
:1027000000F03CFC05006AD0502000F037FC0400CB
:102710005ED02563A5224FF40071284600F0DCFC52
:10272000206B0FF2D00200F5FE70C508ED0005F039
:10273000070004F13401137801F8013B12F8013B62
:1027400043B1137801F8013B12F8013B13B1801C2F
:102750000A28F0D3002084F83D00E0622064606421
:10276000201D00F0E3FC04F1180000F0DFFC0F2056
:10277000A061246164620020A06484F84C000022FF
:102780000FF25D51284600F01FFD20602046FFF744
:10279000FBFE00F025FE01281ED14FF47A6080F385
:1027A0001188BFF34F8FBFF36F8FDFF88C044FF0AA
:1027B000FF31C0F898110121C0F884110021C0F840
:1027C0007C1101B0BDE8304000F024BD01B030BD47
:1027D000284600F053FC02E010F1010FF6D14FF44F
:1027E0007A6080F31188BFF34F8FBFF36F8FFEE7DE
:1027F0000000000049444C4500000000DFF83804A8
:10280000D0F89C11491CC0F89C11704700000000D2
:1028100070B5DFF82454D5F89C010026002440B997
:102820004FF47A6080F31188BFF34F8FBFF36F8F3F
:10283000FEE700F056FDD5F89C01401EC5F89C014E
:10284000D5F89C01002852D1D5F8780110BB4EE094
:10285000E868C66806F1180000F0A3FC301D00F01F
:10286000A0FCD5F88001F26A012191400843C5F827
:102870008001311DF06A00EB800205EB82002C30F4
:1028800000F057FCF06AA96AC96A884224BF012097
:10289000C5F88C0128680028DAD16EB1D5F8580146
:1028A000006810B94FF0FF3004E0D5F85801C06857
:1028B000C0684068C5F89801D5F8886156B100BF76
:1028C00000F01EF810B10120C5F88C01761EF7D17A
:1028D000C5F88841D5F88C0148B1DFF800144FF0F5
:1028E000805001240860BFF34F8FBFF36F8F00F05B
:1028F00012FD204670BDDFF87C06D0F87C017047E1
:10290000F0B5DFF8344381B0D4F89C0100250028ED
:102910006DD1D4F87C01461CC4F87C6127D1D4F871
:102920005801006840B14FF47A6080F31188BFF31A
:102930004F8FBFF36F8FFEE7D4F85801D4F85C11C6
:10294000C4F85811C4F85C01D4F89001401CC4F8D4
:102950009001D4F85801006810B94FF0FF3004E03E
:10296000D4F85801C068C0684068C4F89801D4F829
:102970009801864230D31FE0381D00F012FCB86A7F
:1029800018B107F1180000F00CFCD4F88001FA6AC5
:10299000012191400843C4F88001391DF86A00EB19
:1029A000800204EB82002C3000F0C3FBF86AA16ABD
:1029B000C96A884228BF0125D4F85801006810B9B7
:1029C0004FF0FF3006E0D4F85801C068C768786857
:1029D0008642D1D2C4F89801A06AC06A00EB800197
:1029E00004EB8100C06A022806D3012504E0D4F874
:1029F0008801401CC4F88801D4F88C0100B101257D
:102A0000284601B0F0BD10B58B4CD4F89C0118B12C
:102A10000120C4F88C0110BDC4F88C01A06A006BC1
:102A20000168B1F1A53F04BF4168B1F1A53F07D1ED
:102A30008168B1F1A53F04BFC068B0F1A53F05D0E2
:102A4000A06A00F13401A06A01F005FAD4F880010F
:102A5000B0FA80F0C0F11F0000EB800104EB8100B0
:102A6000C16A41B94FF47A6080F31188BFF34F8F88
:102A7000BFF36F8FFEE72C3000F108024168496810
:102A80004160914204BF496841604068C068A062EB
:102A900010BD70B50D4640B94FF47A6080F31188CF
:102AA000BFF34F8FBFF36F8FFEE7DFF8C844A16A13
:102AB000183100F04AFBD4F87C61A06A001D00F0D8
:102AC00070FB50B9A06AD4F88011C06A012202FAE2
:102AD00000F021EA0000C4F8800115F1010F07D1D0
:102AE000A06A011D04F5B270BDE8704000F021BB82
:102AF000A06AAD194560B542A06A06D2011DD4F89E
:102B00005C01BDE8704000F020BB011DD4F8580105
:102B100000F01BFBD4F89801854238BFC4F89851E7
:102B200070BDF0B581B00E46154640B94FF47A60DD
:102B300080F31188BFF34F8FBFF36F8FFEE7DFF88D
:102B40003444A16A183100F0F4FA0DB14FF0FF36A9
:102B5000D4F87C71A06A001D00F023FB50B9A06A74
:102B6000D4F88011C06A012202FA00F021EA0000C4
:102B7000C4F8800116F1010F09D145B1A06A011D09
:102B800004F5B27001B0BDE8F04000F0D2BAA06A1E
:102B9000F5194560BD42A06A07D2011DD4F85C0159
:102BA00001B0BDE8F04000F0D0BA011DD4F85801E2
:102BB00000F0CBFAD4F89801854238BFC4F8985198
:102BC00001B0F0BD30B581B0C068C46844B94FF4FD
:102BD0007A6080F31188BFF34F8FBFF36F8FFEE7EA
:102BE00004F1180000F0DDFADFF88853D5F89C01F5
:102BF00090B9201D00F0D5FAD5F88001E26A0121D4
:102C000091400843C5F88001211DE06A00EB800275
:102C100005EB82002C3002E004F11801284600F098
:102C200088FAA86AE16AC06A88423ABF0120C5F8FA
:102C30008C01002001B030BD00480020DFF83413C3
:102C4000D1F890210260D1F87C1141607047F0B555
:102C5000040081B00D4608D14FF47A6080F31188EA
:102C6000BFF34F8FBFF36F8FFEE745B94FF47A6024
:102C700080F31188BFF34F8FBFF36F8FFEE700F033
:102C800030FBDFF8F002D0F87C1162682E688B1AF6
:102C900016F1010F11D0D0F89071D4F800C067453B
:102CA00001D091420DD2B34209D2F11A2960D0F875
:102CB00090112160D0F87C016060002402E00020C7
:102CC0002860012400F027FB204601B0F0BDDFF8AA
:102CD000A4120120C1F88C017047000004ED00E04F
:102CE000F0B581B0DFF89042DFF888624FF0805590
:102CF00019E000BF00F0F5FA306AC768381D00F02F
:102D000050FAD6F87801401EC6F87801D6F860016E
:102D1000401EC6F8600100F0FEFA386B00F0AEF914
:102D2000384600F0ABF9D6F860010028E2D1F06A2D
:102D3000022804D32560BFF34F8FBFF36F8F01F0DC
:102D400061F8F0E7DFF82C02D0F8841109B901200E
:102D50007047D0F89C0100280CBF0220002070476B
:102D600030B504460020002C81B047D0DFF8045273
:102D7000E16AAA6AD26A91423AD2A069002804D4D0
:102D8000A86AC06AC0F10F00A06101EB810260690E
:102D900005EB82012C31884226D1201D00F001FA7A
:102DA00078B9E06A00EB800105EB8101C96A41B99D
:102DB000D5F88011012202FA00F021EA0000C5F8DE
:102DC00080010122A86AC06AE0628240D5F88011C1
:102DD0001143C5F8801100EB800205EB8200211D34
:102DE0002C3000F0A6F908E0A86AC06AE06204E0AE
:102DF000216CAA6AD26A914200D2012001B030BD92
:102E000030B504460020002C81B049D0DFF8645171
:102E1000A96A8C4208D04FF47A6080F31188BFF31E
:102E20004F8FBFF36F8FFEE7616C41B94FF47A604B
:102E300080F31188BFF34F8FBFF36F8FFEE7E26A15
:102E4000236C491E9A4261642AD049BB201D00F0C0
:102E5000A8F978B9E06A00EB800105EB8101C96A45
:102E600041B9D5F88011012202FA00F021EA0000F0
:102E7000C5F880010122206CE062C0F10F00A06162
:102E8000E06AD5F8801182401143C5F8801100EB4B
:102E9000800205EB8200211D2C3000F04AF9012050
:102EA00001B030BD30B5040081B057D0606C40B97E
:102EB0004FF47A6080F31188BFF34F8FBFF36F8FA9
:102EC000FEE7226C8A4228BF1146E26A8A4245D058
:102ED000012843D1DFF89C50A86A844208D14FF4FE
:102EE0007A6080F31188BFF34F8FBFF36F8FFEE7D7
:102EF000A069E16200285CBFC1F10F00A06102EB94
:102F00008201606905EB81012C31884226D1201DA8
:102F100000F047F978B9E06A00EB800105EB810128
:102F2000C96A41B9D5F88011012202FA00F021EAFC
:102F30000000C5F880010122E06AD5F880118240C6
:102F40001143C5F8801101B0211D00EB800205EB93
:102F50008200BDE830402C3000F0EBB801B030BD4D
:102F6000DFF81000816A19B1816A4A6C521C4A6408
:102F7000806A70470048002004ED00E0F0B581B0A1
:102F80000546FFF73BFC53484169002479B900F13D
:102F90002001C908C90042F2F87201604460C260B1
:102FA00084604A6000F108020A6001214161002D3D
:102FB0005FD0083515F0070F04D005F1080105F0C2
:102FC00007028D1A002D54D042F2F8718D4250D272
:102FD0000168024601E00A4619464B68AB4217D227
:102FE0000B68ABB10A4619464B68AB4210D20B686E
:102FF00073B10A4619464B68AB4209D20B683BB124
:103000000A4619464B68AB4202D20B68002BE2D14C
:1030100000F1080399422CD0136803F108040B68EF
:1030200013604A68531B112B1FD36A1853604D60FD
:1030300005460668536876689E4213D22D682E684E
:1030400077689F423FBF35462E6877689F4209D216
:1030500035462E6877689F423FBF35462E687668B2
:103060009E42EBD32B6813602A6002694968511AAB
:103070000161FFF7CDFB204601B0F0BD70B540B354
:10308000A0F10804FFF7BAFB6068124A15686D6882
:103090008542134613D21B681D686E6886423FBF87
:1030A0002B461D686E68864209D22B461D686E68E5
:1030B00086423FBF2B461D686D688542EBD3196879
:1030C00021601C60116940181061BDE87040FFF775
:1030D0009FBB70BD7405002062F30F2262F31F4294
:1030E00000B500BF130096469446103928BFA0E8EB
:1030F0000C50FAD85FEA417C28BF0CC048BF40F8AA
:10310000042BC90728BF20F8022B48BF00F8012B69
:1031100000BD00F1080141604FF0FF31816000F116
:103120000801C16001610021016070470021016157
:10313000704742684A6093688B60936859609160F9
:1031400008610168491C0160704730B40B6813F1D5
:10315000010F08BF026919D000F108025468246801
:10316000A34213D3526854682568AB4221BF22465C
:1031700054682568AB4209D3224654682568AB429F
:1031800021BF224654682468A342EBD253684B60A7
:1031900099608A60516008610168491C016030BC17
:1031A00070474368016982689A60836842685A6020
:1031B0004A68824204BF82684A600022026108684D
:1031C000401E08600868704749084900A0F10C03D8
:1031D0004FF0807C5960C3F808C00FF20D011960F0
:1031E00040F8202D203870477649496811F1010FC9
:1031F0004FF47A6006D080F31188BFF34F8FBFF38E
:103200006F8FFEE780F31188BFF34F8FBFF36F8F8F
:10321000FEE7000010B56C486A4C82B0017801915D
:10322000FF21017001788DF800109DF8001001F069
:10323000A001217007219DF80020120640F128808E
:103240009DF8002052008DF80020491E9DF80020B6
:1032500012061DD59DF8002052008DF80020491E51
:103260009DF80020120613D59DF8002052008DF81D
:103270000020491E9DF80020120609D59DF8002067
:1032800052008DF80020491E9DF800201206D7D468
:10329000C1F10702032AA16008D04FF47A6080F3DD
:1032A0001188BFF34F8FBFF36F8FFEE7090201F460
:1032B000E061A16001990170D0F8201941F0F0712E
:1032C000C0F82019D0F8201941F06041C0F8201949
:1032D00000F04AF80020606000F029FE002002B0F3
:1032E00010BD4FF47A6080F31188BFF34F8FBFF3A6
:1032F0006F8F34494A68521C012A4A600AD1334907
:103300000968090606D080F31188BFF34F8FBFF319
:103310006F8FFEE770472B48416841B94FF47A60E0
:1033200080F31188BFF34F8FBFF36F8FFEE7491E05
:10333000416004BF002080F31188704700B581B060
:103340004FF47A6080F31188BFF34F8FBFF36F8F14
:10335000FFF7D6FA18B11D494FF0805008600020E1
:1033600080F3118801B000BD19480021016081601F
:10337000184941600721016070470000EFF30580A4
:10338000102810490DD3144A805C0A78904208D264
:103390004FF47A6080F31188BFF34F8FBFF36F8FC4
:1033A000FEE788680D49096801F4E061884208D2A7
:1033B0004FF47A6080F31188BFF34F8FBFF36F8FA4
:1033C000FEE770476C2E002000E400E004ED00E012
:1033D00010E000E07F380100F0E300E00CED00E0D9
:1033E00000B583B000F0C0F9DFF8C403816869B1AB
:1033F0000C3001900023022000904FF480720FF2F5
:10340000B8310FF22100FFF75BF840B94FF47A6052
:1034100080F31188BFF34F8FBFF36F8FFEE703B0C8
:1034200000BD000000B581B006E0C0680068002162
:1034300000F00BF800F0D2F8DFF8740300680168C0
:103440000029F2D101210020F2E7F0B587B006464D
:103450000F46FFF7D3F9FFF74EFADFF8544305465E
:10346000206985422BD3002F256140F08380B5422F
:10347000C0F08580FFF7CCF92068C068C768381DA8
:10348000FFF78FFEF86901286FD1B86981193346BB
:103490002A46384600F085F8002866D0002F4CD127
:1034A0004FF47A6080F31188BFF34F8FBFF36F8FB3
:1034B000FEE778603F61391D2068FFF746FE20680F
:1034C000016891B3C0680668C768381DFFF769FED8
:1034D000796A38468847F8690128F0D1B8698019B7
:1034E0008642E6D347B94FF47A6080F31188BFF380
:1034F0004F8FBFF36F8FFEE7A06868B10020009088
:1035000001960297FFF71EFCA0680023002269467F
:1035100000F062FD0028D2D14FF47A6080F3118868
:10352000BFF34F8FBFF36F8FFEE76168216060606C
:103530002561FFF76DF907B0F0BDA06860B100200C
:10354000039004960597FFF7FDFBA0680023002277
:1035500003A900F041FD40B94FF47A6080F311886F
:10356000BFF34F8FBFF36F8FFEE7796A3846884706
:1035700007B0F0BD60680068471EBF41FF0FA0683C
:103580003A46711B01F0E2F9FFF742F938B989496F
:103590004FF080500860BFF34F8FBFF36F8F07B0BD
:1035A000F0BD10B500248A424160006107D3D11AF2
:1035B0008269914207D2011D7D48406809E09A4224
:1035C00004D2994202D30124204610BD011D78483F
:1035D0000068FFF7BAFD204610BD00002DE9F0415C
:1035E00086B0734C02E02846FFF748FDA068002231
:1035F00003A900F059FE002800F0B38003980028CA
:10360000F4D4059D686910B1281DFFF7CAFDFFF7C6
:1036100072F906462069864241D205E078603F6132
:10362000391D2068FFF791FD20680168A1B3C068CB
:10363000D0F80080C768381DFFF7B3FD796A3846B7
:103640008847F8690128EFD1B86940448045E5D33F
:1036500047B94FF47A6080F31188BFF34F8FBFF3FF
:103660006F8FFEE7A06870B100200090CDF8048055
:103670000297FFF767FBA06800230022694600F06D
:10368000ABFC0028D0D14FF47A6080F31188BFF3EF
:103690004F8FBFF36F8FFEE7616821606060266126
:1036A00003980928A2D8DFE800F0070707054806B5
:1036B000070705489AE796E70498A9692D610A1853
:1036C00096426A6007D3301A884208D26068291D82
:1036D000FFF73BFD8AE7864240D282423ED3696AC9
:1036E00028468847E86901287FF480AF0498A969D3
:1036F000081845B94FF47A6080F31188BFF34F8FF3
:10370000BFF36F8FFEE7A16871B1002100910190B6
:103710000295FFF717FBA06800230022694600F01E
:103720005BFC00287FF462AF4FF47A6080F311886D
:10373000BFF34F8FBFF36F8FFEE70498A86140B9C6
:103740004FF47A6080F31188BFF34F8FBFF36F8F10
:10375000FEE78019864268602D61B7D22068291D76
:10376000B6E706B0BDE8F08110B5FFF7BAFD104C22
:10377000A068C0B904F11400FFF7CBFC04F12800E5
:10378000FFF7C7FC04F114002060002204F12800B8
:1037900060600C210A2000F0DBFBA06018B10FF282
:1037A000200101F098F8BDE81040FFF7B4BD00001B
:1037B000E04C002004ED00E0546D7220537663006D
:1037C000546D72510000000010B54FF47A70FEF78E
:1037D00047FF01F083F9DFF8DC4608E080B218B15A
:1037E00004F5167101F0BAFD0A20FEF739FF01F069
:1037F000FFFF01F03BFF04F5CE7204F5FE7104F506
:10380000167001F0EDFB04F5CE7204F5FE7104F5BF
:10381000167001F036FE94F87512C1F34012002ABA
:10382000DCD041F0020084F87502DDE72DE9F04FAD
:10383000DFF8804683B094F8750240F0400084F8C9
:103840007502002594F8740240F0080084F87402B0
:10385000002600274AF2D9084FF0640907E000BFAC
:1038600000FB1610C4F8A8000120FEF7F9FEB4F919
:10387000A82141F20E00801AB4F8FA215043B4F89E
:10388000D62190FBF9F04FF48041801A02F024F920
:10389000B4F8D6114018A4F8D60141F6912180B2AF
:1038A000884204DB04F51671072001F057FD01ABD7
:1038B0006A46032104F5E07002F016F901AB04F545
:1038C0002372032104F5E07002F048F9009800EB40
:1038D000800148000014A4F8D401D4F88C0200EB55
:1038E000800148000014A4F8D20149F2CD31B4F9A6
:1038F000AA01A0F6020009FB00FAB4F9AC01A0F697
:10390000020009FB00FB504602F0E6F80AEB4B010F
:10391000032291FBF2F102F05BF94121401B02F01E
:10392000DBF84519B4F8F801E16868430014C000F9
:10393000A4F8CC01A4F8D001A06802F049F941F242
:103940001A2102F0C9F8B4F8D621504300EB8012D6
:1039500040F28F21C7EB820002F0BEF8C71938147D
:10396000A4F8D801B4F9A611D4F8B40109FB01F107
:10397000091A09FB01F100EB6130C4F8B401B4F895
:103980004202F0B1B4F84022D4F87C1209FB02F2F2
:103990008A4210DA94F87612C1F38001E1B9022864
:1039A00004D104F51671222001F0D8FC94F87602B7
:1039B00040F004000EE0481CC4F87C0294F8760243
:1039C00006E0C4F87C0294F87602C0F3800119B1D5
:1039D00000F0FB0084F8760294F87402C0F3400013
:1039E00008B9C4F8AC0094F87502B4F81022C0F31A
:1039F0000010002814BFB4F80812B4F80612D4F866
:103A0000FC01042A08BF41F6CE2207D0B4F80422F4
:103A100012B908FB00F202E0DFF89C24424304F1F3
:103A2000AC0304F5FE7001F05DFA94F8761260F3D1
:103A3000C30184F8761294F87402C0F3400101B90E
:103A40000026C00920D0D4F87802401C6528C4F8AC
:103A5000780219DB0020C4F8780294F87602C0F3EB
:103A6000C00048B9B4F80A02B4F8D411884232BF91
:103A70004644DFF844048619002E48BF0026D4F8D7
:103A8000AC10B142B8BF0E46D4F8AC1000294CBF00
:103A90004FF0FF300120E3E670B5002440F2E64528
:103AA000DFF8106410E0012805D196F8890240F093
:103AB000010086F8890296F80D01C0F3C00002F0FB
:103AC0000FFD6420FEF7CCFD96F87402C0F34000B1
:103AD000002896F875023BD0C0F3001199B1D6F8D2
:103AE000A81019B940F0040086F8750296F875021E
:103AF000C0F3001139B1B6F83C12022904BF40F0FE
:103B0000040086F8750296F87502C0F3800129B3A7
:103B100024B2002C05D4B6F82612891E012998BFBC
:103B20002C46B6F83E1201EB81025100A1420DDA9B
:103B3000C0F3001018B106F5167001F03BFC96F8C2
:103B4000750200F0FB0086F875022C46641C06E046
:103B500000F0EF0040F0040086F875020024D7481A
:103B6000008800289FD196F8890200F0FE00A0E7A7
:103B700010B5D04CB4F8DC01B4F89C11B4F89E2117
:103B8000B4F8A031401AA4F89C0100B2B4F8DE11D8
:103B9000891AA4F89E1109B2B4F8E021D21A41F2B0
:103BA00049235843A064A4F8A02103FB01F0E0647A
:103BB00012B203FB02F0206594F87502014640083A
:103BC00000EA9110C00737D504F51671132001F0F3
:103BD000C5FBB4F99C010146002948BF4942B4F92C
:103BE0009E21032917DA1146002948BF49420329BB
:103BF00011DAB4F9A011002948BF494203290ADAB1
:103C000094F8750200F0BF0084F8750204F5167090
:103C100001F0E2FB10E0B4F8DC11081AA4F8DC01B2
:103C2000B4F8DE01B4F8A011801AA4F8DE01B4F8EB
:103C3000E001401AA4F8E00102F0A0FC94F874023C
:103C4000C0F34000002804F5CE7204F5FE7104F5BF
:103C5000167004BFBDE8104001F0AEB9D4F884324C
:103C6000BDE81040184700002DE9F047944F82B09E
:103C700007F5E360C7F80807012607F21A70C7F8CE
:103C80000C07002407F21C70C7F81007002507F284
:103C90001E70B046C7F8140740F2B259DFF824A2EC
:103CA0005FFA88F84046FEF7DBFCB7F80007800AA9
:103CB0000DD005280BDAD7F8021707EB8000C0F803
:103CC0000417B7F800078005800DA7F8000700204B
:103CD000012E69DB16F0030200F0158007EB80036C
:103CE000ADB2D3F80817497805EB040E6D1C0EF839
:103CF0000710ADB2D3F808371B782919401C6D1C8A
:103D0000CB55521EEAD1B10800F04E8007EB80027D
:103D1000ADB2D2F808375B7805EB040C401C0CF808
:103D200007306B1CD2F8082712789BB21D19EA5590
:103D30005A1C07EB800392B2D3F808576D7802EB58
:103D4000040C521C0CF8075092B2D3F808371B78B9
:103D50001519401CEB55521C07EB800392B2D3F8A7
:103D600008576D7802EB040C521C0CF8075092B205
:103D7000D3F808371B781519401CEB55521C07EB7C
:103D8000800392B2D3F808576D7802EB040C521CF2
:103D90000CF8075092B2D3F808371B781519401C5D
:103DA000EB55551C491EB1D1ADB2F02DFFF678AFE1
:103DB000281900F80780681C80B20119401CCE55F4
:103DC00080B20519DAF8000000F0EEFCE855002595
:103DD000B7F8000700F00301C0F3830000F1010809
:103DE000E019F334A4B200904FF0FF324E1C4C4562
:103DF000A8BF0024DAF800000023694600F0ECF8C0
:103E0000F6B24DE710B52B4CD4F89002401CC4F824
:103E10009002FEF770FDD4F89812401AB0F57A7F40
:103E200018D9FEF768FDC4F89802D4F89412D4F8B3
:103E300090028142B8BFC4F8940264214843D4F888
:103E4000941290FBF1F0C0F16400C4F8F00100207E
:103E5000C4F8900210BD00B581B04FF47A6080F3D1
:103E60001188BFF34F8FBFF36F8F02F0B3F9FEE7F6
:103E700070B5002640F2DC540E4D06E05A20A5F83D
:103E8000960000262046FEF7EBFB95F80C01C0F3E8
:103E9000401000281EBF95F87402C0F340000028AF
:103EA000F0D0002EEAD10020A5F896000126E9E71F
:103EB000000000007C2E0020275FFFFFD44C002074
:103EC000203B00209C2D0020EFF30980BFF36F8F73
:103ED0001D4B1A6820E9F00F106008B54FF47A60A6
:103EE00080F31188BFF34F8FBFF36F8FFEF78BFD09
:103EF0004FF0000080F31188BDE808401968086899
:103F0000B0E8F00F80F30988BFF36F8F70470E4B56
:103F100019680868B0E8F00F80F30988BFF36F8F65
:103F20004FF0000080F311884EF00D0E70470748E7
:103F30000068006880F3088862B661B6BFF34F8FEF
:103F4000BFF36F8F00DF00002848002008ED00E07D
:103F500070B505000E4608D14FF47A6080F31188E1
:103F6000BFF34F8FBFF36F8FFEE7002E0EBF4820C9
:103F700006FB05F04830FFF701F804002AD0002EB8
:103F80000EBF246004F148002060E5632664FFF75B
:103F9000A8F92068E16B226C02FB01006060002040
:103FA000A0632068E16B226CA060491E206802FBC0
:103FB0000100E0604FF0FF3084F8440084F84500D1
:103FC00004F11000FFF7A5F804F12400FFF7A1F8B1
:103FD000FFF7A1F9204670BD2DE9F44382B00446F5
:103FE00088469946002744B94FF47A6080F31188D7
:103FF000BFF34F8FBFF36F8FFEE7B8F1000F01D112
:10400000206CA8B9B9F1020F02D1E06B012818D1D8
:10401000FEF798FE00284BD10298002848D04FF4B4
:104020007A6080F31188BFF34F8FBFF36F8FFEE785
:104030004FF47A6080F31188BFF34F8FBFF36F8F17
:10404000FEE74FF47A6080F31188BFF34F8FBFF320
:104050006F8FFEE7FFF745F994F94550012D0ADB14
:10406000606A40B104F12400FEF7ACFD08B1FEF730
:104070002EFE6D1EF4D14FF0FF3584F84550FFF74A
:104080004AF9FFF72EF994F94460012E0ADB206902
:1040900040B104F11000FEF795FD08B1FEF717FEE0
:1040A000761EF4D184F84450FFF735F9FEF7B0FBE3
:1040B000FFF717F9A06BE16B884202D3B9F1020F49
:1040C0001CD14A464146204600F081FB616A29B175
:1040D00004F12400FEF776FD08B909E040B1DFF8ED
:1040E000C4164FF080500860BFF34F8FBFF36F8F3F
:1040F000FFF711F9012003B0BDE8F083029810B971
:10410000FFF709F974E01FB96846FEF797FD01272C
:10411000FFF701F9FEF772FBFFF7E3F894F94400AB
:1041200010F1010F04BF002084F8440094F9450009
:1041300010F1010F04BF002084F84500FFF7EBF8F1
:1041400002A96846FEF783FD00284CD1FFF7C9F8A5
:10415000A06BE16B88420CBF01250025FFF7DBF85F
:10416000002D3FF477AF029904F11000FEF791FCA7
:10417000FFF7B7F894F94550012D0ADB606A40B1AA
:1041800004F12400FEF71EFD08B1FEF7A0FD6D1E30
:10419000F4D14FF0FF3584F84550FFF7BCF8FFF736
:1041A000A0F894F94460012E0ADB206940B104F1C3
:1041B0001000FEF707FD08B1FEF789FD761EF4D169
:1041C00084F84450FFF7A7F8FEF722FB00287FF49D
:1041D0006FAFDFF8D0154FF080500860BFF34F8FFE
:1041E000BFF36F8F64E7204600F045FBFEF710FB3E
:1041F000002003B0BDE8F08370B504000D4608D17F
:104200004FF47A6080F31188BFF34F8FBFF36F8F45
:10421000FEE7206C40B14FF47A6080F31188BFF361
:104220004F8FBFF36F8FFEE7206808B9606830BB1F
:10423000FFF7A4F8EFF311864FF47A6080F311884A
:10424000BFF34F8FBFF36F8FA06BE16B884226D215
:1042500094F94510401C11F1010FA06318D1606A58
:10426000C8B104F12400FEF7ADFC002818BF002DF2
:1042700011D001202860012086F3118870BD4FF411
:104280007A6080F31188BFF34F8FBFF36F8FFEE723
:10429000481C84F84500012086F3118870BD002079
:1042A00086F3118870BD00002DE9F44183B0044607
:1042B0008846002644B94FF47A6080F31188BFF332
:1042C0004F8FBFF36F8FFEE7B8F1000F01D1206C65
:1042D00078B9FEF737FD002842D1039800283FD077
:1042E0004FF47A6080F31188BFF34F8FBFF36F8F65
:1042F000FEE74FF47A6080F31188BFF34F8FBFF36E
:104300006F8FFEE7FEF7EDFF94F94570012F0ADB92
:10431000606A40B104F12400FEF754FC08B1FEF7D6
:10432000D6FC7F1EF4D14FF0FF3784F84570FEF7BE
:10433000F2FFFEF7D6FF94F94450012D0ADB206905
:1043400040B104F11000FEF73DFC08B1FEF7BFFCE0
:104350006D1EF4D184F84470FEF7DDFFFEF758FAC5
:10436000FEF7BFFFA76BDFB14146204600F06DFAB4
:10437000781EA063206968B104F11000FEF722FCEA
:1043800040B1DFF820144FF080500860BFF34F8F2A
:10439000BFF36F8FFEF7BFFF012004B0BDE8F081CF
:1043A000039810B9FEF7B7FFA5E01EB96846FEF7FF
:1043B00045FC0126FEF7AFFFFEF720FAFEF791FF5E
:1043C00094F9440010F1010F04BF002084F8440068
:1043D00094F9450010F1010F04BF002084F8450056
:1043E000FEF799FF03A96846FEF731FC002849D182
:1043F000FEF777FFA06B471EBF41FEF78CFFFF0F54
:10440000002F3FF47FAF039904F12400FEF741FB36
:10441000FEF767FF94F94570012F0ADB606A40B12F
:1044200004F12400FEF7CEFB08B1FEF750FC7F1E1E
:10443000F4D14FF0FF3784F84570FEF76CFFFEF7BC
:1044400050FF94F94450012D0ADB206940B104F17A
:104450001000FEF7B7FB08B1FEF739FC6D1EF4D172
:1044600084F84470FEF757FFFEF7D2F900287FF476
:1044700077AFCC494FF080500860BFF34F8FBFF348
:104480006F8F6DE7FEF72DFF94F94570012F0ADB62
:10449000606A40B104F12400FEF794FB08B1FEF716
:1044A00016FC7F1EF4D14FF0FF3784F84570FEF7FD
:1044B00032FFFEF716FF94F94450012D0ADB206904
:1044C00040B104F11000FEF77DFB08B1FEF7FFFBE1
:1044D0006D1EF4D184F84470FEF71DFFFEF798F9C5
:1044E000FEF7FFFEA06B471EBF41FEF714FFFF0F54
:1044F000002F3FF435AF002004B0BDE8F08100008C
:104500002DE9F241002583B00446A84644B94FF492
:104510007A6080F31188BFF34F8FBFF36F8FFEE790
:10452000206C40B14FF47A6080F31188BFF34F8F55
:10453000BFF36F8FFEE7FEF705FC00283AD1039822
:10454000002837D04FF47A6080F31188BFF34F8F83
:10455000BFF36F8FFEE700BFFEF7C3FE94F945700F
:10456000012F0ADB606A40B104F12400FEF72AFB48
:1045700008B1FEF7ACFB7F1EF4D14FF0FF3784F893
:104580004570FEF7C8FEFEF7ACFE94F94460012EBC
:104590000ADB206940B104F11000FEF713FB08B1FB
:1045A000FEF795FB761EF4D184F84470FEF7B3FE57
:1045B000FEF72EF9FEF795FEA06BD8B1401EA06362
:1045C000206810B9FEF7CCFC6060206960B104F18E
:1045D0001000FEF7F7FA38B172494FF080500860CA
:1045E000BFF34F8FBFF36F8FFEF795FE012004B02E
:1045F000BDE8F081039870B9B8F1000F08D04FF40E
:104600007A6080F31188BFF34F8FBFF36F8FFEE79F
:10461000FEF781FEC1E01DB96846FEF70FFB0125DC
:10462000FEF779FEFEF7EAF8FEF75BFE94F9440028
:1046300010F1010F04BF002084F8440094F94500F4
:1046400010F1010F04BF002084F84500FEF763FE5F
:1046500003A96846FEF7FBFA002853D1FEF741FE96
:10466000A06B471EBF41FEF756FEFF0F002F3FF421
:1046700073AF206838B9FEF734FE6068FEF770FB50
:104680008046FEF748FE039904F12400FEF701FA84
:10469000FEF727FE94F94570012F0ADB606A40B1EE
:1046A00004F12400FEF78EFA08B1FEF710FB7F1E1E
:1046B000F4D14FF0FF3784F84570FEF72CFEFEF77B
:1046C00010FE94F94460012E0ADB206940B104F128
:1046D0001000FEF777FA08B1FEF7F9FA761EF4D16A
:1046E00084F84470FEF717FEFEF792F800287FF476
:1046F00061AF2C494FF080500860BFF34F8FBFF37C
:104700006F8F57E7FEF7EDFD94F94570012F0ADB37
:10471000606A40B104F12400FEF754FA08B1FEF7D4
:10472000D6FA7F1EF4D14FF0FF3784F84570FEF7BC
:10473000F2FDFEF7D6FD94F94460012E0ADB2069F4
:1047400040B104F11000FEF73DFA08B1FEF7BFFAE0
:10475000761EF4D184F84470FEF7DDFDFEF758F8BC
:10476000FEF7BFFDA06B471EBF41FEF7D4FDFF0F54
:10477000002F3FF41FAFB8F1000F0ED0FEF7B1FDD0
:10478000606A00281DBF206B0068C0F10F01002186
:104790006068FEF787FBFEF7BEFD002004B0BDE8B1
:1047A000F081000004ED00E010B5040008D14FF4E2
:1047B0007A6080F31188BFF34F8FBFF36F8FFEE7EE
:1047C000FEF78FFDA46BFEF7A6FD204610BDF0B5E9
:1047D000044681B0A56B1746226C002662B920689A
:1047E00070BB6068FEF70CFB064600206060681C2A
:1047F000A06301B03046F0BD87B9A06801F00AFFA0
:10480000A068216C08186168A060884218D32068ED
:10481000A060681CA06301B03046F0BDE06801F004
:10482000F9FE206CE16840424118E1602268914243
:1048300002D261684018E060022F01D105B16D1EFF
:10484000681CA06301B03046F0BD10B481B0026CAA
:104850000B466AB1C16844685118C160A14224BFC7
:104860000168C160C16801B010BC184601F0D2BE39
:1048700001B010BC704770B50446FEF732FD94F9E4
:104880004550012D0ADB606A40B104F12400FEF7B7
:1048900099F908B1FEF71BFA6D1EF4D14FF0FF3500
:1048A00084F84550FEF737FDFEF71BFD94F9446090
:1048B000012E0ADB206940B104F11000FEF782F9F5
:1048C00008B1FEF704FA761EF4D184F84450BDE82E
:1048D0007040FEF720BD1C4BD3F800C00022BCF195
:1048E000000F05D143F8321003EBC2014860704756
:1048F000D3F808C00122BCF1000F1EBF0222D3F87A
:1049000010C0BCF1000FEDD0D3F818C00322BCF1E9
:10491000000F1EBF0422D3F820C0BCF1000FE1D06D
:10492000D3F828C00522BCF1000F1EBF0622D3F821
:1049300030C0BCF1000F1EBF0722D3F838C0BCF155
:10494000000FCFD070470000644C002070B50446C3
:104950000D461646FEF7C5FC94F9440010F1010F10
:1049600004BF002084F8440094F9450010F1010FC1
:1049700004BF002084F84500FEF7CDFCA06B28B9E9
:104980003246294604F12400FEF7CBF82046BDE864
:10499000704070E730B5044681B0A0682169626854
:1049A000401AA0600821504301F096F8E1684018D1
:1049B00061698142D8BF08464A429042B8BF10465A
:1049C000E0602368A068E56803FB0053A569012D3A
:1049D00018460BDB20618142C8BF01460846904261
:1049E000B8BF1046191A91FBF5F1216101B030BD35
:1049F00070B50446DFF8C4540020C5F83401C5F88A
:104A00003801C5F83C01C5F81801C5F81C01C5F806
:104A10002001C5F85001C5F85401C5F85801C5F882
:104A20006C01C5F87001C5F87401C5F88801C5F8B6
:104A30008C01C5F8900128616861C5F8A000C5F82F
:104A40009C00A865282105F1200001F01FFEDFF879
:104A5000700400210022002300264EC00EC005F580
:104A600082702860296105F1FC006860A9616961B4
:104A7000E961A960E960A5F80C11608A022809D1F2
:104A800041F0010085F80C0105F12000286005F1D6
:104A9000A0006860B5F8B00028B995F80C0140F0A6
:104AA000100085F80C01B5F8B000012805D195F883
:104AB0000C0140F0200085F80C01B5F8B000022888
:104AC00005D195F80C0140F0080085F80C01A5F817
:104AD00088102046BDE8704001F042BFDFF8DC03DB
:104AE0003C21C0F828113C22DFF8D813C0F824116B
:104AF000C0F84011C0F844210F21C0F860114FF4F4
:104B00007A720021C0F87C11C0F8B42043F69822D4
:104B1000DFF8B413C0F87811C0F8B8200021C0F84D
:104B2000F8100022E949C0F8F410C0F8C810C0F825
:104B3000CC204FF49671C0F80021C0F8D420C0F802
:104B4000981170472DE9F04F401E012881B005D91A
:104B5000801E00F0D58001B0BDE8F08FD74CDC4D51
:104B6000B4F88E0001F0FEFEDA4901F00BFF0146B9
:104B7000D74801F007FF4FF08F47394601F080FF1B
:104B800001F0EAFFE065B4F88A0001F0EBFED149DC
:104B900001F0F8FE294601F073FF0646B4F88E00D6
:104BA00001F0E0FECB4901F0EDFE0146304601F098
:104BB000E9FE394601F064FF01F0CEFF2066B4F84B
:104BC000900001F0CFFEC34901F0DCFE294601F060
:104BD00057FF0646B4F88E0001F0C4FEBD4901F04F
:104BE000D1FE0146304601F0CDFE394601F048FFC6
:104BF00001F0B2FF6066B4F8900001F0B3FEB54971
:104C000001F0C0FE0146284601F0BCFE394601F025
:104C100037FF01F0A1FFA066B4F88A0001F0A2FE00
:104C2000AC4901F0AFFE294601F02AFF0646B4F870
:104C3000900001F097FEA74901F0A4FE014630461E
:104C400001F0A0FE394601F01BFF01F085FFE06690
:104C5000B4F88E0001F086FE9E4901F093FE2946CD
:104C600001F00EFF0646B4F8900001F07BFE994972
:104C700001F088FE0146304601F084FE394601F01D
:104C8000FFFE01F069FF2067B4F8920001F06AFEB0
:104C9000904901F077FE294601F0F2FE0546B4F88E
:104CA000900001F05FFE8B4901F06CFE0146284642
:104CB00001F068FE394601F0E3FE01F04DFF606748
:104CC000B4F8920001F04EFE824901F05BFE054609
:104CD000B4F88E0001F046FE7E4901F053FE014615
:104CE000284601F04FFE394601F0CAFE01F034FFBC
:104CF000A067B4F89400C4F8800001B0BDE8F08F5C
:104D00006E4CB4F8900001F02DFE724901F03AFEAD
:104D10000746B4F8920001F025FE6E4901F032FE1C
:104D20008146394601F02EFE0546B4F88E0001F0AA
:104D300019FE684901F026FE80464846414601F0CA
:104D400021FE06464846494601F09AFE834639460A
:104D500001F018FE0146404601F020FF8146B4F8FC
:104D60008A0001F0FFFD5B4901F00CFE0146484658
:104D700001F008FE82465846414601F003FE014616
:104D8000384601F00BFF0746B4F88C0001F0EAFD4D
:104D9000504901F0F7FD0146384601F0F3FD804629
:104DA0004FF07E50494601F0EDFD4FF08F473946F8
:104DB00001F066FE01F0D0FEE0654946284601F0AC
:104DC000E1FD394601F05CFE01F0C6FE2066514669
:104DD000284601F0D7FD394601F052FE01F0BCFE35
:104DE000606651464FF07E5001F0CCFD394601F02F
:104DF00047FE01F0B1FEA0664146304601F0C2FD1B
:104E0000394601F03DFE01F0A7FEE06641464FF055
:104E10007E5001F0B7FD394601F032FE01F09CFEF4
:104E20002067642149F2FA3060670020A067B4F877
:104E30009400C4F88000B4F99800000490FBF1F0ED
:104E4000A06501B0BDE8F08F30B581B005461446CD
:104E500008682168401A01F015FFA86008216A68F7
:104E6000504300F039FEE9684018E860A9682A68F4
:104E700002FB010069690D468142C8BF05464842F0
:104E80008542B8BF05460821284600F025FE216866
:104E9000401811498842A4BF104908181049884297
:104EA000BCBF00F54920FD30206001B02846BDE8B8
:104EB00030404FF6F01100F00FBE00007C2E0020B5
:104EC000504D002000AC26008006D13900F153651A
:104ED0006F12033900401C46C6283A01036FF3FFE6
:104EE0003BD7C5FEF0B40024150048BF6D4287884B
:104EF0004AF2D9067743AF42B8BF3A46150048BFD9
:104F00006D42C08870438542B8BF02466420484362
:104F1000196897FBF0F09142BCBF411801248A4206
:104F2000BCBF091A01248D1A48BF6D428542B8BF23
:104F3000114619602046F0BC7047F0B4016844681F
:104F40008368091801EB5402E40748BF4B440C3056
:104F500091422BD011F8014B14F0030504BF11F856
:104F6000015BED1C26090F2E07D111F8016B0F36DE
:104F700003E011F8017B03F8017B6D1EF9D1002ECF
:104F8000E6D0A40811F8015B04F00304032C08BF69
:104F900011F8014B05EB04241C1BB51CD8D014F8E8
:104FA000016B03F8016B6D1EF9D1D1E7F0BC7047BE
:104FB000DFF800F00D01002010B504460846DFF8C8
:104FC00060370021C3F8A81091871187916451625E
:104FD0009162D162D187FFF70BFD0120A06210BD65
:104FE00030B581B00446888A10B104280FD02FE074
:104FF0008888B1F948209042B8BFA1F84800C88815
:10500000B1F94820824225DAA1F8480022E0B1F93E
:105010005820002A48BF5242888800EB40035B00BA
:10502000934204DA00EB40025000A1F85800B1F9B5
:105030005800002848BF4042CA8802EB4203B0EB48
:10504000430F07DA02EB42004000A1F8580001E0EC
:1050500000208882207FC0F34000A0B9488A03283E
:105060000FD8DFE800F00206060ADFF8B806E062B3
:1050700009E0DFF8B406E06205E0DFF8B006E062C0
:1050800001E0012048821422607F104211BF0020FD
:10509000888A01EB8000B0F948000860888A01EB3B
:1050A000800090F84A0000F0010008816088401EEE
:1050B0006ED0401E45D0801E2DD0001F00F08D8088
:1050C000083800F0BF80801E00F0DB80401E00F03A
:1050D000D38040F2ED22801A21D0401E61D0401EC4
:1050E00049D040F2FF52801A56D0401E29D040F6D7
:1050F0000122801A00F0E3804FF44072801A00F021
:10510000DB8041F2FE12801A0ED044F67672801ACD
:1051100000F0AB80DEE0204600F05EF9DAE0607F70
:1051200080F080006077D5E0607F80F0200040F064
:105130000200607701F0E4F8607F40F040006077A3
:10514000C8E0B1F8400020B1607F40F01000607707
:10515000C0E001F0A7F8207FC0F34000002800F075
:10516000B98040F202202080207F00F0F90040F05A
:1051700001002077AEE0888A022840F0AB80002052
:1051800001F090F8207FC0F340000028E9D1A1E0B1
:10519000888A50B1042801E0888A012840F09A806A
:1051A00003E0888A022840F09580488AFFF7CAFC0D
:1051B000217F080980F001000840C00740F18A8083
:1051C000002001F03FF840F202302080207F00F004
:1051D000FA0040F0020020777CE0207FC0F340001E
:1051E000002877D1608001F09FF8012872D100205B
:1051F00001F058F8207FC0F3400040B140F2022097
:105200002080207F00F0F90040F001002077207F0F
:10521000C0F3800141B90421617000F0FC0010214D
:10522000217040F004002077607FC0F34000002828
:1052300050D1207F40F008002077102020700120FE
:10524000607047E0207FC0F34000002842D16080BA
:1052500001F0AFF801283DD1002001F023F8207FB4
:10526000C0F340000028C9D1D1E7207FC0F340003F
:1052700080BBFFF79DFE2DE0607F80F0010060772E
:1052800028E0207FC0F3400020BBDFF8A404DFF853
:10529000A414152250F8045B31F9063B2B80521EF2
:1052A00050F8045B31F9063B2B8050F8045B31F970
:1052B000063B2B80EED10DE000F08CFF0AE0DFF81A
:1052C0007804217FE062080980F001000840C007EF
:1052D0003FF576AF00206080207FC0F3001038B328
:1052E000002000F0DFFF207FC0F3400139B140F221
:1052F000022100F0F900218040F001002077207F9A
:10530000C0F3800141B90421617000F0FC0020214C
:10531000217040F004002077607FC0F3400038B96E
:10532000207F40F00800207720202070012060704E
:10533000207FC10744BF02216170C0F3800109B121
:1053400004216170C0F3400109B103216170C0F311
:10535000C00008B10120607001B030BD30B5044616
:1053600081B00D46002000F09DFF287FC0F3400172
:1053700039B140F2022100F0F900298040F001002B
:105380002877287FC0F3800139B90421697000F0C3
:10539000FC002C7040F004002877687FC0F34000C8
:1053A00030B9287F40F0080028772C700120687001
:1053B00001B030BD10B50446002000F073FF207F1F
:1053C000C0F3400139B140F2022100F0F900218020
:1053D00040F00100207710BD10B504460C21207F5D
:1053E00008421BD0002000F05DFF207FC0F3400189
:1053F00039B140F2022100F0F900218040F00100B3
:105400002077607FC0F3400040B1207F00F0F100C2
:1054100040F00100207702202070607000F0F4FF5F
:10542000012827D1002000F03DFF207FC0F340017C
:1054300039B140F2022100F0F900218040F0010072
:105440002077207FC0F3800141B90421617000F012
:10545000FC000B21217040F004002077607FC0F336
:10546000400038B9207F40F0080020770B202070E2
:10547000012060700021AA48C0F80011C0F8D410C3
:1054800010BD70B504461546227F00260320024257
:105490001CBF02202070C2F3400000281EBFA37F63
:1054A000C3F34003002B1CBF1223237003231A42B3
:1054B0001EBFA27FC2F38002002A1CBF22222270DC
:1054C000627FC2F30012002A1EBF00282120207034
:1054D000CA8940F25F108242A4BF4FF4AF72CA8102
:1054E0000A8AC92AA4BFC8220A82227FC2F34002C4
:1054F000002A48D0CA892B8F9A4238D20F222270B4
:10550000A289521CA28192B22B8F8342A3BFE3894E
:105510005B1CE381E6812B8FB3F5B47FC3BF238A85
:105520005B1C238226822B8FB3F5B97FC3BF638AAE
:105530005B1C638266822B8F8342A8BF0C26C889BE
:1055400040009842B8BF0C26B2F5C86FC8BF0C2601
:10555000E089B0F5487FC8BF0C26208AB0F5C87F27
:10556000C8BF0C26608A51280DDB0C260BE0A681F3
:10557000E6812682668240F20F312088884204BF8D
:1055800040F202302080607FC0F34000E8B9688FAD
:10559000A0F2D17041F2BF2188423EBFA88EB5F87B
:1055A0005A1081423CBFB5F8581088420DD263486A
:1055B0000168B1F5FA7F02DA491C016005E000F0EC
:1055C0009FFE607F40F04200607741F69121688F36
:1055D0008842A8BF072640F26C718842B8BF0626F1
:1055E000A88EB5F85A10884238BF0526B5F858106D
:1055F000814238BF0426298FA08A652908DB401C18
:10560000A08280B2B0F57A6F05DD4FF47A6001E0D8
:1056100008B1401EA082A08AB0F57A7F03DD217F09
:1056200041F020012177B5F94610292906DB217FB9
:10563000C1F3401212B941F020012177B5F94610AB
:10564000232907DA30B9207FC0F3401131B100F0CF
:10565000DF002077207FC0F3401010B9607FC009C1
:1056600000E0012000F051FE304670BD30B43049FA
:1056700033484A69128842828A69128882820022EB
:105680000B68B3F900500488ADB2AC42B8BF1C80BF
:10569000B3F900504488ADB2A542B8BF1C804B6836
:1056A000B3F90050C488521CADB2AC42B8BF1C80E4
:1056B000B3F900500489ADB2A542B8BF1C808B6815
:1056C000B3F900508489521CADB2AC42B8BF1C8003
:1056D000B3F90050C489ADB2A542B8BF1C80521CBA
:1056E00012300C313F2ACBDB30BC704710481149D7
:1056F0005FF0150250F804CB31F9063BACF80030EE
:10570000521E50F804CB31F9063BACF8003050F88B
:1057100004CB31F9063BACF80030EBD17047000008
:105720007C2E002095660008D99C00082DA3000857
:105730001C310020DC030020B9A10008884D0020A6
:10574000D803002030B5144681B01A46C1B3F829F9
:1057500036DADFF85C5385F8801088BBDFF8540335
:10576000049BC5F88C002146DFF84C03C5F8900077
:10577000DFF84803C5F88800DFF84403C5F8940053
:105780000020C5F89800DFF83C03C5F89C00DFF85E
:105790003803C5F8A000DFF83403C5F8A40095F875
:1057A000800001F0B3FA04000BD101F0ADFB00283A
:1057B0000EBF0324012085F88100204601B030BDD2
:1057C0000224204601B030BD30B5B94D81B095F806
:1057D00081000024012807D1D5F88C00804785F886
:1057E0008140204601B030BD0624204601B030BDC6
:1057F00070B5AF4C82B094F8810010B1062002B0B1
:1058000070BD684601F08BFB012862D19DF8000055
:10581000012802D0022817D05BE0D4F8943004F1BC
:10582000840204F1A80104F182009847002850D1B5
:1058300094F8820094F88010884218BF002848D15C
:10584000022001F066FB44E0D4F8A800037884F855
:1058500083300121002225462E781EB315F8086BEF
:105860009E4207D104EBC20204F1840152689047C2
:10587000014617E02E78521CA6B115F8086B9E421F
:10588000F0D02E78521C6EB115F8086B9E42E9D00C
:105890002E78521C36B115F8086B9E42E2D0521C8D
:1058A000102AD9DB94F8820098B1D4F8A80041B14D
:1058B00094F8832042F08002027041700221A4F823
:1058C00084100146B4F8842094F88000D4F888301D
:1058D0009847002002B070BDF0B41C460023002998
:1058E00000F092805518412D80F28E80491E24B11F
:1058F000012C49D0F0BC18467047002A00F0858082
:10590000734C54F82150ED5E2D1200F8015B521ECD
:1059100054F82150491C2D8800F8015B92B2002AEE
:1059200073D054F82150ED5E2D1200F8015B521E29
:1059300054F82150491C2D8800F8015B92B2002ACE
:1059400063D054F82150ED5E2D1200F8015B521E19
:1059500054F82150491C2D8800F8015B92B2002AAE
:1059600053D054F82150ED5E2D1200F8015B521E09
:1059700054F82140491C248800F8014B92B2002AB7
:10598000BED1F0BC18467047002A3ED0504C10F8EB
:10599000016B54F8215036022E80521E2E8810F8CA
:1059A000017B3E432E80491C92B272B354F82150C1
:1059B00010F8016B36022E80521E2E8810F8017BE3
:1059C0003E432E80491C92B2FAB154F8215010F88F
:1059D000016B36022E80521E2E8810F8017B3E434A
:1059E0002E80491C92B282B154F8214010F8015B1C
:1059F0002D022580521E258810F8016B3543258025
:105A0000491C92B20AB1C1E70123F0BC18467047A5
:105A1000134630B40022002946D05C180F2C43DA1C
:105A2000002B42D02B4C04EB8101091F13F003041F
:105A30000BD00D68AD5E2D1200F8015B641E51F8AD
:105A4000045B2D8800F8015BF3D19B082DD00C6816
:105A5000A45E241200F8014B51F8044B248800F88E
:105A6000014B0C68A45E241200F8014B51F8044B62
:105A7000248800F8014B0C68A45E241200F8014B46
:105A800051F8044B248800F8014B0C68A45E2412E2
:105A900000F8014B5B1E51F8044B248800F8014BC1
:105AA000D5D130BC10467047012230BC104670473B
:105AB000C02D0020496D0008676D0008C56D000805
:105AC0007F6D0008236E0008796E0008DB6E000809
:105AD0001C3100201832002080FB01014FEA1040E9
